{
  "contractName": "Identity",
  "abi": [
    {
      "constant": true,
      "inputs": [],
      "name": "subject",
      "outputs": [
        {
          "name": "",
          "type": "string"
        }
      ],
      "payable": false,
      "stateMutability": "view",
      "type": "function"
    },
    {
      "constant": true,
      "inputs": [],
      "name": "audience",
      "outputs": [
        {
          "name": "",
          "type": "string"
        }
      ],
      "payable": false,
      "stateMutability": "view",
      "type": "function"
    },
    {
      "constant": true,
      "inputs": [],
      "name": "keys",
      "outputs": [
        {
          "name": "",
          "type": "address"
        }
      ],
      "payable": false,
      "stateMutability": "view",
      "type": "function"
    },
    {
      "constant": true,
      "inputs": [
        {
          "name": "",
          "type": "address"
        }
      ],
      "name": "accounts",
      "outputs": [
        {
          "name": "",
          "type": "bool"
        }
      ],
      "payable": false,
      "stateMutability": "view",
      "type": "function"
    },
    {
      "inputs": [
        {
          "name": "sub",
          "type": "string"
        },
        {
          "name": "aud",
          "type": "string"
        },
        {
          "name": "jwks",
          "type": "address"
        }
      ],
      "payable": true,
      "stateMutability": "payable",
      "type": "constructor"
    },
    {
      "constant": false,
      "inputs": [
        {
          "name": "headerJson",
          "type": "string"
        },
        {
          "name": "payloadJson",
          "type": "string"
        },
        {
          "name": "signature",
          "type": "bytes"
        }
      ],
      "name": "recover",
      "outputs": [],
      "payable": false,
      "stateMutability": "nonpayable",
      "type": "function"
    },
    {
      "constant": true,
      "inputs": [],
      "name": "getAccounts",
      "outputs": [
        {
          "name": "",
          "type": "address[]"
        }
      ],
      "payable": false,
      "stateMutability": "view",
      "type": "function"
    }
  ],
  "bytecode": "0x60806040526040516200421e3803806200421e833981018060405260608110156200002957600080fd5b8101908080516401000000008111156200004257600080fd5b828101905060208101848111156200005957600080fd5b81518560018202830111640100000000821117156200007757600080fd5b505092919060200180516401000000008111156200009457600080fd5b82810190506020810184811115620000ab57600080fd5b8151856001820283011164010000000082111715620000c957600080fd5b50509291906020018051906020019092919050505060016000803373ffffffffffffffffffffffffffffffffffffffff1673ffffffffffffffffffffffffffffffffffffffff16815260200190815260200160002060006101000a81548160ff02191690831515021790555060013390806001815401808255809150509060018203906000526020600020016000909192909190916101000a81548173ffffffffffffffffffffffffffffffffffffffff021916908373ffffffffffffffffffffffffffffffffffffffff160217905550508160029080519060200190620001b392919062000217565b508260039080519060200190620001cc92919062000217565b5080600460006101000a81548173ffffffffffffffffffffffffffffffffffffffff021916908373ffffffffffffffffffffffffffffffffffffffff160217905550505050620002c6565b828054600181600116156101000203166002900490600052602060002090601f016020900481019282601f106200025a57805160ff19168380011785556200028b565b828001600101855582156200028b579182015b828111156200028a5782518255916020019190600101906200026d565b5b5090506200029a91906200029e565b5090565b620002c391905b80821115620002bf576000816000905550600101620002a5565b5090565b90565b613f4880620002d66000396000f3fe608060405234801561001057600080fd5b50600436106100625760003560e01c80630a59a98c146100675780631ee1f800146100ea578063307540f61461016d5780635e5c06e2146101b75780637fac7eec146102135780638a48ac03146103fc575b600080fd5b61006f61045b565b6040518080602001828103825283818151815260200191508051906020019080838360005b838110156100af578082015181840152602081019050610094565b50505050905090810190601f1680156100dc5780820380516001836020036101000a031916815260200191505b509250505060405180910390f35b6100f26104f9565b6040518080602001828103825283818151815260200191508051906020019080838360005b83811015610132578082015181840152602081019050610117565b50505050905090810190601f16801561015f5780820380516001836020036101000a031916815260200191505b509250505060405180910390f35b610175610597565b604051808273ffffffffffffffffffffffffffffffffffffffff1673ffffffffffffffffffffffffffffffffffffffff16815260200191505060405180910390f35b6101f9600480360360208110156101cd57600080fd5b81019080803573ffffffffffffffffffffffffffffffffffffffff1690602001909291905050506105bd565b604051808215151515815260200191505060405180910390f35b6103fa6004803603606081101561022957600080fd5b810190808035906020019064010000000081111561024657600080fd5b82018360208201111561025857600080fd5b8035906020019184600183028401116401000000008311171561027a57600080fd5b91908080601f016020809104026020016040519081016040528093929190818152602001838380828437600081840152601f19601f820116905080830192505050505050509192919290803590602001906401000000008111156102dd57600080fd5b8201836020820111156102ef57600080fd5b8035906020019184600183028401116401000000008311171561031157600080fd5b91908080601f016020809104026020016040519081016040528093929190818152602001838380828437600081840152601f19601f8201169050808301925050505050505091929192908035906020019064010000000081111561037457600080fd5b82018360208201111561038657600080fd5b803590602001918460018302840111640100000000831117156103a857600080fd5b91908080601f016020809104026020016040519081016040528093929190818152602001838380828437600081840152601f19601f8201169050808301925050505050505091929192905050506105dd565b005b610404610b6a565b6040518080602001828103825283818151815260200191508051906020019060200280838360005b8381101561044757808201518184015260208101905061042c565b505050509050019250505060405180910390f35b60038054600181600116156101000203166002900480601f0160208091040260200160405190810160405280929190818152602001828054600181600116156101000203166002900480156104f15780601f106104c6576101008083540402835291602001916104f1565b820191906000526020600020905b8154815290600101906020018083116104d457829003601f168201915b505050505081565b60028054600181600116156101000203166002900480601f01602080910402602001604051908101604052809291908181526020018280546001816001161561010002031660029004801561058f5780601f106105645761010080835404028352916020019161058f565b820191906000526020600020905b81548152906001019060200180831161057257829003601f168201915b505050505081565b600460009054906101000a900473ffffffffffffffffffffffffffffffffffffffff1681565b60006020528060005260406000206000915054906101000a900460ff1681565b60606105e884610bf8565b905060606105f584610bf8565b90506060600260405190808252806020026020018201604052801561063457816020015b610621613ca8565b8152602001906001900390816106195790505b50905061064083610f63565b81600081518110151561064f57fe5b9060200190602002018190525061066582610f63565b81600181518110151561067457fe5b9060200190602002018190525060606106d3826106c56040805190810160405280600181526020017f2e00000000000000000000000000000000000000000000000000000000000000815250610f63565b610f9190919063ffffffff16565b905060606106e0886110f5565b905060606106ed82611492565b905060606106fa836114b8565b90506000610715898484886116a2909392919063ffffffff16565b14151561078a576040517f08c379a000000000000000000000000000000000000000000000000000000000815260040180806020018281038252601a8152602001807f525341207369676e617475726520636865636b206661696c656400000000000081525060200191505060405180910390fd5b60608060606107988c611759565b925092509250600061084d60028054600181600116156101000203166002900480601f0160208091040260200160405190810160405280929190818152602001828054600181600116156101000203166002900480156108395780601f1061080e57610100808354040283529160200191610839565b820191906000526020600020905b81548152906001019060200180831161081c57829003601f168201915b505050505085611d9b90919063ffffffff16565b1480610857575060015b15156108cb576040517f08c379a00000000000000000000000000000000000000000000000000000000081526004018080602001828103825260178152602001807f41756469656e636520646f6573206e6f74206d6174636800000000000000000081525060200191505060405180910390fd5b600061097a60038054600181600116156101000203166002900480601f0160208091040260200160405190810160405280929190818152602001828054600181600116156101000203166002900480156109665780601f1061093b57610100808354040283529160200191610966565b820191906000526020600020905b81548152906001019060200180831161094957829003601f168201915b505050505083611d9b90919063ffffffff16565b1415156109ef576040517f08c379a00000000000000000000000000000000000000000000000000000000081526004018080602001828103825260168152602001807f5375626a65637420646f6573206e6f74206d617463680000000000000000000081525060200191505060405180910390fd5b6060610a4833604051602001808273ffffffffffffffffffffffffffffffffffffffff1673ffffffffffffffffffffffffffffffffffffffff1660601b8152601401915050604051602081830303815290604052610bf8565b90506000803373ffffffffffffffffffffffffffffffffffffffff1673ffffffffffffffffffffffffffffffffffffffff16815260200190815260200160002060009054906101000a900460ff161515610b5a5760016000803373ffffffffffffffffffffffffffffffffffffffff1673ffffffffffffffffffffffffffffffffffffffff16815260200190815260200160002060006101000a81548160ff02191690831515021790555060013390806001815401808255809150509060018203906000526020600020016000909192909190916101000a81548173ffffffffffffffffffffffffffffffffffffffff021916908373ffffffffffffffffffffffffffffffffffffffff160217905550505b5050505050505050505050505050565b60606001805480602002602001604051908101604052809291908181526020018280548015610bee57602002820191906000526020600020905b8160009054906101000a900473ffffffffffffffffffffffffffffffffffffffff1673ffffffffffffffffffffffffffffffffffffffff1681526020019060010190808311610ba4575b5050505050905090565b606080829050600060038251811515610c0d57fe5b0690506000600382600303811515610c2157fe5b06600460036002865101811515610c3457fe5b04020390506060816040519080825280601f01601f191660200182016040528015610c6e5781602001600182028038833980820191505090505b509050600080905060008090505b855160038301111515610e0157610cf78683815181101515610c9a57fe5b90602001015160f81c60f81b60f81c60ff168760018501815181101515610cbd57fe5b90602001015160f81c60f81b60f81c60ff168860028601815181101515610ce057fe5b90602001015160f81c60f81b60f81c60ff16611f65565b8685815181101515610d0557fe5b90602001018760018701815181101515610d1b57fe5b90602001018860028801815181101515610d3157fe5b90602001018960038901815181101515610d4757fe5b9060200101847effffffffffffffffffffffffffffffffffffffffffffffffffffffffffffff191660001a9053847effffffffffffffffffffffffffffffffffffffffffffffffffffffffffffff191660001a9053847effffffffffffffffffffffffffffffffffffffffffffffffffffffffffffff191660001a9053847effffffffffffffffffffffffffffffffffffffffffffffffffffffffffffff191660001a905350505050600481019050600382019150610c7c565b600085141515610f555760008686885103815181101515610e1e57fe5b90602001015160f81c60f81b60f81c905060008090506002871415610e6157876001895103815181101515610e4f57fe5b90602001015160f81c60f81b60f81c90505b600080600080610e798660ff168660ff166000611f65565b9350935093509350838988815181101515610e9057fe5b9060200101907effffffffffffffffffffffffffffffffffffffffffffffffffffffffffffff1916908160001a905350828960018901815181101515610ed257fe5b9060200101907effffffffffffffffffffffffffffffffffffffffffffffffffffffffffffff1916908160001a90535060028b1415610f4e57818960028901815181101515610f1d57fe5b9060200101907effffffffffffffffffffffffffffffffffffffffffffffffffffffffffffff1916908160001a9053505b5050505050505b829650505050505050919050565b610f6b613cc2565b600060208301905060408051908101604052808451815260200182815250915050919050565b6060600082511415610fb557602060405190810160405280600081525090506110ef565b60006001835103846000015102905060008090505b8351811015611000578381815181101515610fe157fe5b9060200190602002015160000151820191508080600101915050610fca565b506060816040519080825280601f01601f1916602001820160405280156110365781602001600182028038833980820191505090505b509050600060208201905060008090505b85518110156110e75761109182878381518110151561106257fe5b9060200190602002015160200151888481518110151561107e57fe5b906020019060200201516000015161208a565b858181518110151561109f57fe5b90602001906020020151600001518201915060018651038110156110da576110d0828860200151896000015161208a565b8660000151820191505b8080600101915050611047565b508193505050505b92915050565b60606000606060006111116014866120d590919063ffffffff16565b92509250925060008314151561118f576040517f08c379a00000000000000000000000000000000000000000000000000000000081526004018080602001828103825260118152602001807f4a534f4e207061727365206661696c656400000000000000000000000000000081525060200191505060405180910390fd5b6001600481111561119c57fe5b8260008151811015156111ab57fe5b906020019060200201516000015160048111156111c457fe5b141515611239576040517f08c379a000000000000000000000000000000000000000000000000000000000815260040180806020018281038252601c8152602001807f4578706563746564204a575420746f20626520616e206f626a6563740000000081525060200191505060405180910390fd5b6000600190505b81811015611488576003600481111561125557fe5b838281518110151561126357fe5b9060200190602002015160000151600481111561127c57fe5b1415156112d4576040517f08c379a0000000000000000000000000000000000000000000000000000000008152600401808060200182810382526028815260200180613df56028913960400191505060405180910390fd5b606061132184838151811015156112e757fe5b9060200190602002015160200151858481518110151561130357fe5b906020019060200201516060015189612d4e9092919063ffffffff16565b9050600061136d6040805190810160405280600381526020017f6b6964000000000000000000000000000000000000000000000000000000000081525083611d9b90919063ffffffff16565b141561147c576003600481111561138057fe5b846001840181518110151561139157fe5b906020019060200201516000015160048111156113aa57fe5b14151561141f576040517f08c379a000000000000000000000000000000000000000000000000000000000815260040180806020018281038252601b8152602001807f4578706563746564206b696420746f206265206120737472696e67000000000081525060200191505060405180910390fd5b611470846001840181518110151561143357fe5b9060200190602002015160200151856001850181518110151561145257fe5b906020019060200201516060015189612d4e9092919063ffffffff16565b9550505050505061148d565b60028201915050611240565b505050505b919050565b6060610120604051908101604052806101008152602001613e1d61010091399050919050565b6060600460009054906101000a900473ffffffffffffffffffffffffffffffffffffffff1673ffffffffffffffffffffffffffffffffffffffff1663497fc8f4836040518263ffffffff1660e01b81526004018080602001828103825283818151815260200191508051906020019080838360005b8381101561154857808201518184015260208101905061152d565b50505050905090810190601f1680156115755780820380516001836020036101000a031916815260200191505b509250505060006040518083038186803b15801561159257600080fd5b505afa1580156115a6573d6000803e3d6000fd5b505050506040513d6000823e3d601f19601f8201168201806040525060208110156115d057600080fd5b8101908080516401000000008111156115e857600080fd5b828101905060208101848111156115fe57600080fd5b815185600182028301116401000000008211171561161b57600080fd5b5050929190505050905060008151141561169d576040517f08c379a000000000000000000000000000000000000000000000000000000000815260040180806020018281038252600d8152602001807f4b6579206e6f7420666f756e640000000000000000000000000000000000000081525060200191505060405180910390fd5b919050565b600061174f6002866040518082805190602001908083835b6020831015156116df57805182526020820191506020810190506020830392506116ba565b6001836020036101000a038019825116818451168082178552505050505050905001915050602060405180830381855afa158015611721573d6000803e3d6000fd5b5050506040513d602081101561173657600080fd5b8101908080519060200190929190505050858585612e10565b9050949350505050565b60608060606000606060006117786028886120d590919063ffffffff16565b9250925092506000831415156117f6576040517f08c379a00000000000000000000000000000000000000000000000000000000081526004018080602001828103825260118152602001807f4a534f4e207061727365206661696c656400000000000000000000000000000081525060200191505060405180910390fd5b6001600481111561180357fe5b82600081518110151561181257fe5b9060200190602002015160000151600481111561182b57fe5b1415156118a0576040517f08c379a000000000000000000000000000000000000000000000000000000000815260040180806020018281038252601c8152602001807f4578706563746564204a575420746f20626520616e206f626a6563740000000081525060200191505060405180910390fd5b6000600190505b81811015611d9057600360048111156118bc57fe5b83828151811015156118ca57fe5b906020019060200201516000015160048111156118e357fe5b14151561193b576040517f08c379a0000000000000000000000000000000000000000000000000000000008152600401808060200182810382526028815260200180613df56028913960400191505060405180910390fd5b6060611988848381518110151561194e57fe5b9060200190602002015160200151858481518110151561196a57fe5b90602001906020020151606001518b612d4e9092919063ffffffff16565b905060006119d46040805190810160405280600381526020017f737562000000000000000000000000000000000000000000000000000000000081525083611d9b90919063ffffffff16565b1415611ade57600360048111156119e757fe5b84600184018151811015156119f857fe5b90602001906020020151600001516004811115611a1157fe5b141515611a86576040517f08c379a000000000000000000000000000000000000000000000000000000000815260040180806020018281038252601b8152602001807f45787065637465642073756220746f206265206120737472696e67000000000081525060200191505060405180910390fd5b611ad78460018401815181101515611a9a57fe5b90602001906020020151602001518560018501815181101515611ab957fe5b90602001906020020151606001518b612d4e9092919063ffffffff16565b9550611d84565b6000611b286040805190810160405280600381526020017f617564000000000000000000000000000000000000000000000000000000000081525083611d9b90919063ffffffff16565b1415611c325760036004811115611b3b57fe5b8460018401815181101515611b4c57fe5b90602001906020020151600001516004811115611b6557fe5b141515611bda576040517f08c379a000000000000000000000000000000000000000000000000000000000815260040180806020018281038252601b8152602001807f45787065637465642061756420746f206265206120737472696e67000000000081525060200191505060405180910390fd5b611c2b8460018401815181101515611bee57fe5b90602001906020020151602001518560018501815181101515611c0d57fe5b90602001906020020151606001518b612d4e9092919063ffffffff16565b9750611d83565b6000611c7c6040805190810160405280600581526020017f6e6f6e636500000000000000000000000000000000000000000000000000000081525083611d9b90919063ffffffff16565b1415611d825760036004811115611c8f57fe5b8460018401815181101515611ca057fe5b90602001906020020151600001516004811115611cb957fe5b141515611d2e576040517f08c379a000000000000000000000000000000000000000000000000000000000815260040180806020018281038252601d8152602001807f4578706563746564206e6f6e636520746f206265206120737472696e6700000081525060200191505060405180910390fd5b611d7f8460018401815181101515611d4257fe5b90602001906020020151602001518560018501815181101515611d6157fe5b90602001906020020151606001518b612d4e9092919063ffffffff16565b96505b5b5b600282019150506118a7565b505050509193909250565b6000606083905060608390506000825190508082511015611dbb57815190505b60008090505b81811015611f0b578281815181101515611dd757fe5b90602001015160f81c60f81b7effffffffffffffffffffffffffffffffffffffffffffffffffffffffffffff19168482815181101515611e1357fe5b90602001015160f81c60f81b7effffffffffffffffffffffffffffffffffffffffffffffffffffffffffffff19161015611e73577fffffffffffffffffffffffffffffffffffffffffffffffffffffffffffffffff945050505050611f5f565b8281815181101515611e8157fe5b90602001015160f81c60f81b7effffffffffffffffffffffffffffffffffffffffffffffffffffffffffffff19168482815181101515611ebd57fe5b90602001015160f81c60f81b7effffffffffffffffffffffffffffffffffffffffffffffffffffffffffffff19161115611efe576001945050505050611f5f565b8080600101915050611dc1565b50815183511015611f41577fffffffffffffffffffffffffffffffffffffffffffffffffffffffffffffffff9350505050611f5f565b815183511115611f575760019350505050611f5f565b600093505050505b92915050565b600080600080600085600888901b60108a901b171790506000603f601283901c1690506000603f600c84901c1690506000603f600685901c1690506000603f8516905060606040519081016040528060408152602001613db56040913984815181101515611fcf57fe5b90602001015160f81c60f81b985060606040519081016040528060408152602001613db5604091398381518110151561200457fe5b90602001015160f81c60f81b975060606040519081016040528060408152602001613db5604091398281518110151561203957fe5b90602001015160f81c60f81b965060606040519081016040528060408152602001613db5604091398181518110151561206e57fe5b90602001015160f81c60f81b9550505050505093509350935093565b5b6020811015156120b0578151835260208301925060208201915060208103905061208b565b60006001826020036101000a0390508019835116818551168181178652505050505050565b600060606000606085905060006120ea613cdc565b6120f3876131f8565b809650819250505060008082602001519050600061210f613cfe565b5b865185600001511015612d3157600087866000015181518110151561213157fe5b90602001015160f81c60f81b9050607b60f81b817effffffffffffffffffffffffffffffffffffffffffffffffffffffffffffff191614806121985750605b60f81b817effffffffffffffffffffffffffffffffffffffffffffffffffffffffffffff1916145b156122c65783806001019450506121af868b613296565b80935081985050508615156121d95760038a60008090509a509a509a505050505050505050612d47565b7fffffffffffffffffffffffffffffffffffffffffffffffffffffffffffffffff86604001511415156122385789866040015181518110151561221857fe5b9060200190602002015160a001805180919060010160ff1660ff16815250505b607b60f81b817effffffffffffffffffffffffffffffffffffffffffffffffffffffffffffff19161461226c57600261226f565b60015b8260000190600481111561227f57fe5b9081600481111561228c57fe5b8152505085600001518260200181815250506001826040019015159081151581525050600186602001510386604001818152505050612d1c565b607d60f81b817effffffffffffffffffffffffffffffffffffffffffffffffffffffffffffff1916148061231f5750605d60f81b817effffffffffffffffffffffffffffffffffffffffffffffffffffffffffffff1916145b1561255a576000607d60f81b827effffffffffffffffffffffffffffffffffffffffffffffffffffffffffffff19161461235a57600261235d565b60015b90506000809050600188602001510394505b60008510151561247c578b8581518110151561238757fe5b906020019060200201519350836040015180156123a657508360800151155b1561246e578160048111156123b757fe5b846000015160048111156123c757fe5b1415156123eb5760018c60008090509c509c509c5050505050505050505050612d47565b7fffffffffffffffffffffffffffffffffffffffffffffffffffffffffffffffff88604001818152505060018860000151018c8681518110151561242b57fe5b90602001906020020151606001818152505060018c8681518110151561244d57fe5b9060200190602002015160800190151590811515815250506001905061247c565b84806001900395505061236f565b8015156124a05760018c60008090509c509c509c5050505050505050505050612d47565b5b60008511156124f9578b858151811015156124b857fe5b906020019060200201519350836040015180156124d757508360800151155b156124eb57848860400181815250506124f9565b8480600190039550506124a1565b6000851415612552578b8581518110151561251057fe5b9060200190602002015193508360400151801561252f57508360800151155b1561255157846fffffffffffffffffffffffffffffffff168860400181815250505b5b505050612d1c565b7f2200000000000000000000000000000000000000000000000000000000000000817effffffffffffffffffffffffffffffffffffffffffffffffffffffffffffff19161415612642576125af868b8a613368565b94506000851415156125d557848a60008090509a509a509a505050505050505050612d47565b83806001019450507fffffffffffffffffffffffffffffffffffffffffffffffffffffffffffffffff866040015114151561263c5789866040015181518110151561261c57fe5b9060200190602002015160a001805180919060010160ff1660ff16815250505b50612d1c565b7f2000000000000000000000000000000000000000000000000000000000000000817effffffffffffffffffffffffffffffffffffffffffffffffffffffffffffff191614806126b75750601160f81b817effffffffffffffffffffffffffffffffffffffffffffffffffffffffffffff1916145b806126e75750601260f81b817effffffffffffffffffffffffffffffffffffffffffffffffffffffffffffff1916145b806127175750601460f81b817effffffffffffffffffffffffffffffffffffffffffffffffffffffffffffff1916145b156127225750612d1c565b7f3a00000000000000000000000000000000000000000000000000000000000000817effffffffffffffffffffffffffffffffffffffffffffffffffffffffffffff1916141561278357600186602001510386604001818152505050612d1c565b7f2c00000000000000000000000000000000000000000000000000000000000000817effffffffffffffffffffffffffffffffffffffffffffffffffffffffffffff19161415612974577fffffffffffffffffffffffffffffffffffffffffffffffffffffffffffffffff86604001511415801561283757506002600481111561280957fe5b8a876040015181518110151561281b57fe5b9060200190602002015160000151600481111561283457fe5b14155b801561287957506001600481111561284b57fe5b8a876040015181518110151561285d57fe5b9060200190602002015160000151600481111561287657fe5b14155b1561296e57600186602001510392505b60008310151561296d57600260048111156128a057fe5b8a848151811015156128ae57fe5b906020019060200201516000015160048111156128c757fe5b14806129045750600160048111156128db57fe5b8a848151811015156128e957fe5b9060200190602002015160000151600481111561290257fe5b145b1561295f57898381518110151561291757fe5b9060200190602002015160400151801561294a5750898381518110151561293a57fe5b9060200190602002015160800151155b1561295e578286604001818152505061296d565b5b828060019003935050612889565b5b50612d1c565b7f3000000000000000000000000000000000000000000000000000000000000000817effffffffffffffffffffffffffffffffffffffffffffffffffffffffffffff191610158015612a0857507f3900000000000000000000000000000000000000000000000000000000000000817effffffffffffffffffffffffffffffffffffffffffffffffffffffffffffff191611155b80612a5457507f2d00000000000000000000000000000000000000000000000000000000000000817effffffffffffffffffffffffffffffffffffffffffffffffffffffffffffff1916145b80612aa057507f6600000000000000000000000000000000000000000000000000000000000000817effffffffffffffffffffffffffffffffffffffffffffffffffffffffffffff1916145b80612aec57507f7400000000000000000000000000000000000000000000000000000000000000817effffffffffffffffffffffffffffffffffffffffffffffffffffffffffffff1916145b80612b3857507f6e00000000000000000000000000000000000000000000000000000000000000817effffffffffffffffffffffffffffffffffffffffffffffffffffffffffffff1916145b15612c9e577fffffffffffffffffffffffffffffffffffffffffffffffffffffffffffffffff8660400151141515612c0057898660400151815181101515612b7c57fe5b90602001906020020151915060016004811115612b9557fe5b82600001516004811115612ba557fe5b1480612bdf575060036004811115612bb957fe5b82600001516004811115612bc957fe5b148015612bde575060008260a0015160ff1614155b5b15612bff5760018a60008090509a509a509a505050505050505050612d47565b5b612c0b868b8a61381c565b9450600085141515612c3157848a60008090509a509a509a505050505050505050612d47565b83806001019450507fffffffffffffffffffffffffffffffffffffffffffffffffffffffffffffffff8660400151141515612c9857898660400151815181101515612c7857fe5b9060200190602002015160a001805180919060010160ff1660ff16815250505b50612d1c565b602060f81b817effffffffffffffffffffffffffffffffffffffffffffffffffffffffffffff191610158015612cfa5750607e60f81b817effffffffffffffffffffffffffffffffffffffffffffffffffffffffffffff191611155b15612d1a5760018a60008090509a509a509a505050505050505050612d47565b505b84600001805180919060010181525050612110565b6000898660200151995099509950505050505050505b9250925092565b60608084905060608484036040519080825280601f01601f191660200182016040528015612d8b5781602001600182028038833980820191505090505b50905060008590505b84811015612e03578281815181101515612daa57fe5b90602001015160f81c60f81b82878303815181101515612dc657fe5b9060200101907effffffffffffffffffffffffffffffffffffffffffffffffffffffffffffff1916908160001a9053508080600101915050612d94565b5080925050509392505050565b6000612e1a613d47565b61026060405190810160405280603060ff168152602001603160ff168152602001603060ff168152602001600d60ff168152602001600660ff168152602001600960ff168152602001606060ff168152602001608660ff168152602001604860ff168152602001600160ff168152602001606560ff168152602001600360ff168152602001600460ff168152602001600260ff168152602001600160ff168152602001600560ff168152602001600060ff168152602001600460ff168152602001602060ff168152509050600b602060ff1660130101835110151515612eff57600080fd5b60006060612f0e878787613b18565b90506000815190506000865190506060816040519080825280601f01601f191660200182016040528015612f515781602001600182028038833980820191505090505b5090508160208201846020870160056107d05a03fa506000602060136003850303039050600060f81b826000815181101515612f8957fe5b90602001015160f81c60f81b7effffffffffffffffffffffffffffffffffffffffffffffffffffffffffffff1916141580612fe557506001826001815181101515612fd057fe5b90602001015160f81c60f81b60f81c60ff1614155b15612ffa5760019750505050505050506131f0565b600295505b8060020186101561306f5760ff60f81b828781518110151561301d57fe5b90602001015160f81c60f81b7effffffffffffffffffffffffffffffffffffffffffffffffffffffffffffff19161415156130625760029750505050505050506131f0565b8580600101965050612fff565b600060f81b828260020181518110151561308557fe5b90602001015160f81c60f81b7effffffffffffffffffffffffffffffffffffffffffffffffffffffffffffff19161415156130ca5760039750505050505050506131f0565b600095505b60138610156131375786866013811015156130e657fe5b602002015160ff168287836003010181518110151561310157fe5b90602001015160f81c60f81b60f81c60ff1614151561312a5760049750505050505050506131f0565b85806001019650506130cf565b600095505b602060ff168610156131e4578b8660208110151561315657fe5b1a60f81b7effffffffffffffffffffffffffffffffffffffffffffffffffffffffffffff19168287601384600301010181518110151561319257fe5b90602001015160f81c60f81b7effffffffffffffffffffffffffffffffffffffffffffffffffffffffffffff19161415156131d75760059750505050505050506131f0565b858060010196505061313c565b60009750505050505050505b949350505050565b613200613cdc565b606061320a613cdc565b60606040519081016040528060008152602001600081526020017fffffffffffffffffffffffffffffffffffffffffffffffffffffffffffffffff815250905060608460405190808252806020026020018201604052801561328657816020015b613273613d6b565b81526020019060019003908161326b5790505b5090508181935093505050915091565b60006132a0613cfe565b825184602001511015156132d85760008360018551038151811015156132c257fe5b9060200190602002015180905091509150613361565b6132e0613cfe565b60c060405190810160405280600060048111156132f957fe5b81526020016000815260200160001515815260200160008152602001600015158152602001600060ff1681525090508084866020015181518110151561333b57fe5b906020019060200201819052508460200180518091906001018152505060018192509250505b9250929050565b60008084600001519050600061337c613cfe565b866000018051809190600101815250505b8451876000015110156138035760008588600001518151811015156133ae57fe5b90602001015160f81c60f81b90507f2200000000000000000000000000000000000000000000000000000000000000817effffffffffffffffffffffffffffffffffffffffffffffffffffffffffffff19161415613457576134108888613296565b809350819450505082151561343657838860000181815250506003945050505050613815565b61344a826003600187018b60000151613bec565b6000945050505050613815565b605c8160f81c60ff16148015613474575085516001896000015101105b156137ec57876000018051809190600101815250507f22000000000000000000000000000000000000000000000000000000000000008689600001518151811015156134bc57fe5b90602001015160f81c60f81b7effffffffffffffffffffffffffffffffffffffffffffffffffffffffffffff1916148061355457507f2f0000000000000000000000000000000000000000000000000000000000000086896000015181518110151561352457fe5b90602001015160f81c60f81b7effffffffffffffffffffffffffffffffffffffffffffffffffffffffffffff1916145b806135bd57507f5c0000000000000000000000000000000000000000000000000000000000000086896000015181518110151561358d57fe5b90602001015160f81c60f81b7effffffffffffffffffffffffffffffffffffffffffffffffffffffffffffff1916145b8061362657507f66000000000000000000000000000000000000000000000000000000000000008689600001518151811015156135f657fe5b90602001015160f81c60f81b7effffffffffffffffffffffffffffffffffffffffffffffffffffffffffffff1916145b8061368f57507f720000000000000000000000000000000000000000000000000000000000000086896000015181518110151561365f57fe5b90602001015160f81c60f81b7effffffffffffffffffffffffffffffffffffffffffffffffffffffffffffff1916145b806136f857507f6e000000000000000000000000000000000000000000000000000000000000008689600001518151811015156136c857fe5b90602001015160f81c60f81b7effffffffffffffffffffffffffffffffffffffffffffffffffffffffffffff1916145b8061376157507f620000000000000000000000000000000000000000000000000000000000000086896000015181518110151561373157fe5b90602001015160f81c60f81b7effffffffffffffffffffffffffffffffffffffffffffffffffffffffffffff1916145b806137ca57507f740000000000000000000000000000000000000000000000000000000000000086896000015181518110151561379a57fe5b90602001015160f81c60f81b7effffffffffffffffffffffffffffffffffffffffffffffffffffffffffffff1916145b156137d557506137ee565b838860000181815250506001945050505050613815565b505b8660000180518091906001018152505061338d565b82876000018181525050600293505050505b9392505050565b60008060009050600085600001519050600080613837613cfe565b5b865189600001511015613a955786896000015181518110151561385757fe5b90602001015160f81c60f81b92507f2000000000000000000000000000000000000000000000000000000000000000837effffffffffffffffffffffffffffffffffffffffffffffffffffffffffffff191614806138f657507f0900000000000000000000000000000000000000000000000000000000000000837effffffffffffffffffffffffffffffffffffffffffffffffffffffffffffff1916145b8061394257507f0a00000000000000000000000000000000000000000000000000000000000000837effffffffffffffffffffffffffffffffffffffffffffffffffffffffffffff1916145b8061398e57507f0d00000000000000000000000000000000000000000000000000000000000000837effffffffffffffffffffffffffffffffffffffffffffffffffffffffffffff1916145b806139da57507f2c00000000000000000000000000000000000000000000000000000000000000837effffffffffffffffffffffffffffffffffffffffffffffffffffffffffffff1916145b80613a0a5750607d60f81b837effffffffffffffffffffffffffffffffffffffffffffffffffffffffffffff1916145b80613a3a5750605d60f81b837effffffffffffffffffffffffffffffffffffffffffffffffffffffffffffff1916145b15613a485760019450613a95565b60208360f81c60ff161080613a635750607f8360f81c60ff16115b15613a805783896000018181525050600195505050505050613b11565b88600001805180919060010181525050613838565b841515613ab45783896000018181525050600295505050505050613b11565b613abe8989613296565b8092508193505050811515613ae55783896000018181525050600395505050505050613b11565b613af6816004868c60000151613bec565b88600001805180919060019003815250506000955050505050505b9392505050565b60606000825184518651606001010190506000855190506000855190506000855190506000806000806060886040519080825280601f01601f191660200182016040528015613b765781602001600182028038833980820191505090505b50905060208d01945060208c01935060208b019250876020820152866040820152856060820152602081019150613bb260608301868f51613c5d565b613bc48d516060840101858e51613c5d565b613bd98c518e51606085010101848d51613c5d565b8099505050505050505050509392505050565b8284600001906004811115613bfd57fe5b90816004811115613c0a57fe5b8152505081846020018181525050600184604001901515908115158152505080846060018181525050600184608001901515908115158152505060008460a0019060ff16908160ff168152505050505050565b5b602081101515613c835781518352602083019250602082019150602081039050613c5e565b60006001826020036101000a0390508019835116818551168181178652505050505050565b604080519081016040528060008152602001600081525090565b604080519081016040528060008152602001600081525090565b6060604051908101604052806000815260200160008152602001600081525090565b60c06040519081016040528060006004811115613d1757fe5b81526020016000815260200160001515815260200160008152602001600015158152602001600060ff1681525090565b61026060405190810160405280601390602082028038833980820191505090505090565b60c06040519081016040528060006004811115613d8457fe5b81526020016000815260200160001515815260200160008152602001600015158152602001600060ff168152509056fe4142434445464748494a4b4c4d4e4f505152535455565758595a6162636465666768696a6b6c6d6e6f707172737475767778797a303132333435363738392d5f4578706563746564204a575420746f20636f6e7461696e206f6e6c7920737472696e67206b65797300000000000000000000000000000000000000000000000000000000000000000000000000000000000000000000000000000000000000000000000000000000000000000000000000000000000000000000000000000000000000000000000000000000000000000000000000000000000000000000000000000000000000000000000000000000000000000000000000000000000000000000000000000000000000000000000000000000000000000000000000000000000000000000000000000000000000000000000000000000000000000000000000000000000000000000000000000000000000000000000000000000000000000000000000010001a165627a7a723058206c25e1e1d91ee1e77f5345ceeda090390b937f9edd32467b2785de7d2a004c9a0029",
  "source": "pragma solidity ^0.5.0;\n\nimport \"./Base64.sol\";\nimport \"./JsmnSolLib.sol\";\nimport \"./JWT.sol\";\nimport \"./SolRsaVerify.sol\";\nimport \"./Strings.sol\";\nimport \"./JWKS.sol\";\n\ncontract Identity {\n\n  using Base64 for string;\n  using StringUtils for *;\n  using SolRsaVerify for *;\n  using JsmnSolLib for string;\n\n  mapping (address => bool) public accounts;\n  address[] private accountsList;\n  string public audience;\n  string public subject;\n  JWKS public keys;\n  \n  constructor(string memory sub, string memory aud, JWKS jwks) public payable {\n    accounts[msg.sender] = true;\n    accountsList.push(msg.sender);\n    audience = aud;\n    subject = sub;\n    keys = jwks;\n  }\n\n  function recover(string memory headerJson, string memory payloadJson, bytes memory signature) public {\n    string memory headerBase64 = headerJson.encode();\n    string memory payloadBase64 = payloadJson.encode();\n    StringUtils.slice[] memory slices = new StringUtils.slice[](2);\n    slices[0] = headerBase64.toSlice();\n    slices[1] = payloadBase64.toSlice();\n    string memory message = \".\".toSlice().join(slices);\n    string memory kid = parseHeader(headerJson);\n    bytes memory exponent = getRsaExponent(kid);\n    bytes memory modulus = getRsaModulus(kid);\n    require(message.pkcs1Sha256VerifyStr(signature, exponent, modulus) == 0, \"RSA signature check failed\");\n\n    (string memory aud, string memory nonce, string memory sub) = parseToken(payloadJson);\n    \n    require(aud.strCompare(audience) == 0 || true, \"Audience does not match\");\n    require(sub.strCompare(subject) == 0, \"Subject does not match\");\n\n    string memory senderBase64 = string(abi.encodePacked(msg.sender)).encode();\n    // require(senderBase64.strCompare(nonce) == 0, \"Sender does not match nonce\");\n\n    if (!accounts[msg.sender]) {\n      accounts[msg.sender] = true;\n      accountsList.push(msg.sender);\n    }\n  }\n\n  function parseHeader(string memory json) internal pure returns (string memory kid) {\n    (uint exitCode, JsmnSolLib.Token[] memory tokens, uint ntokens) = json.parse(20);\n    require(exitCode == 0, \"JSON parse failed\");\n    \n    require(tokens[0].jsmnType == JsmnSolLib.JsmnType.OBJECT, \"Expected JWT to be an object\");\n    uint i = 1;\n    while (i < ntokens) {\n      require(tokens[i].jsmnType == JsmnSolLib.JsmnType.STRING, \"Expected JWT to contain only string keys\");\n      string memory key = json.getBytes(tokens[i].start, tokens[i].end);\n      if (key.strCompare(\"kid\") == 0) {\n        require(tokens[i+1].jsmnType == JsmnSolLib.JsmnType.STRING, \"Expected kid to be a string\");\n        return json.getBytes(tokens[i+1].start, tokens[i+1].end);\n      }\n      i += 2;\n    }\n  }\n\n  function parseToken(string memory json) internal pure returns (string memory aud, string memory nonce, string memory sub) {\n    (uint exitCode, JsmnSolLib.Token[] memory tokens, uint ntokens) = json.parse(40);\n    require(exitCode == 0, \"JSON parse failed\");\n    \n    require(tokens[0].jsmnType == JsmnSolLib.JsmnType.OBJECT, \"Expected JWT to be an object\");\n    uint i = 1;\n    while (i < ntokens) {\n      require(tokens[i].jsmnType == JsmnSolLib.JsmnType.STRING, \"Expected JWT to contain only string keys\");\n      string memory key = json.getBytes(tokens[i].start, tokens[i].end);\n      if (key.strCompare(\"sub\") == 0) {\n        require(tokens[i+1].jsmnType == JsmnSolLib.JsmnType.STRING, \"Expected sub to be a string\");\n        sub = json.getBytes(tokens[i+1].start, tokens[i+1].end);\n      } else if (key.strCompare(\"aud\") == 0) {\n        require(tokens[i+1].jsmnType == JsmnSolLib.JsmnType.STRING, \"Expected aud to be a string\");\n        aud = json.getBytes(tokens[i+1].start, tokens[i+1].end);\n      } else if (key.strCompare(\"nonce\") == 0) {\n        require(tokens[i+1].jsmnType == JsmnSolLib.JsmnType.STRING, \"Expected nonce to be a string\");\n        nonce = json.getBytes(tokens[i+1].start, tokens[i+1].end);\n      }\n      i += 2;\n    }\n  }\n\n  function getRsaModulus(string memory kid) internal view returns (bytes memory modulus) {\n    modulus = keys.getModulus(kid);\n    if (modulus.length == 0) revert(\"Key not found\");\n  }\n\n  function getRsaExponent(string memory) internal pure returns (bytes memory) {\n    return hex\"00000000000000000000000000000000000000000000000000000000000000000000000000000000000000000000000000000000000000000000000000000000000000000000000000000000000000000000000000000000000000000000000000000000000000000000000000000000000000000000000000000000000000000000000000000000000000000000000000000000000000000000000000000000000000000000000000000000000000000000000000000000000000000000000000000000000000000000000000000000000000000000000000000000000000000000000000000000000000000000000000000000000000000000000000010001\";\n  }\n\n  function getAccounts() public view returns (address[] memory) {\n    return accountsList;\n  }\n}",
  "sourcePath": "/mnt/d/lv/solidity-jwt/contracts/Identity.sol",
  "compiler": {
    "name": "solc",
    "version": "0.5.4+commit.9549d8ff.Emscripten.clang"
  },
  "schemaVersion": "3.4.16",
  "updatedAt": "2024-11-19T04:28:10.280Z",
  "devdoc": {
    "methods": {}
  },
  "userdoc": {
    "methods": {}
  }
}