{
  "contractName": "JWKS",
  "abi": [
    {
      "inputs": [],
      "payable": false,
      "stateMutability": "nonpayable",
      "type": "constructor"
    },
    {
      "constant": false,
      "inputs": [
        {
          "name": "kid",
          "type": "string"
        },
        {
          "name": "modulus",
          "type": "bytes"
        }
      ],
      "name": "addKey",
      "outputs": [],
      "payable": false,
      "stateMutability": "nonpayable",
      "type": "function"
    },
    {
      "constant": true,
      "inputs": [
        {
          "name": "kid",
          "type": "string"
        }
      ],
      "name": "getModulus",
      "outputs": [
        {
          "name": "",
          "type": "bytes"
        }
      ],
      "payable": false,
      "stateMutability": "view",
      "type": "function"
    }
  ],
  "bytecode": "0x608060405234801561001057600080fd5b50336000806101000a81548173ffffffffffffffffffffffffffffffffffffffff021916908373ffffffffffffffffffffffffffffffffffffffff160217905550610523806100606000396000f3fe608060405234801561001057600080fd5b50600436106100365760003560e01c8063497fc8f41461003b578063c4436bb51461016f575b600080fd5b6100f46004803603602081101561005157600080fd5b810190808035906020019064010000000081111561006e57600080fd5b82018360208201111561008057600080fd5b803590602001918460018302840111640100000000831117156100a257600080fd5b91908080601f016020809104026020016040519081016040528093929190818152602001838380828437600081840152601f19601f8201169050808301925050505050505091929192905050506102c1565b6040518080602001828103825283818151815260200191508051906020019080838360005b83811015610134578082015181840152602081019050610119565b50505050905090810190601f1680156101615780820380516001836020036101000a031916815260200191505b509250505060405180910390f35b6102bf6004803603604081101561018557600080fd5b81019080803590602001906401000000008111156101a257600080fd5b8201836020820111156101b457600080fd5b803590602001918460018302840111640100000000831117156101d657600080fd5b91908080601f016020809104026020016040519081016040528093929190818152602001838380828437600081840152601f19601f8201169050808301925050505050505091929192908035906020019064010000000081111561023957600080fd5b82018360208201111561024b57600080fd5b8035906020019184600183028401116401000000008311171561026d57600080fd5b91908080601f016020809104026020016040519081016040528093929190818152602001838380828437600081840152601f19601f8201169050808301925050505050505091929192905050506103ce565b005b60606001826040518082805190602001908083835b6020831015156102fb57805182526020820191506020810190506020830392506102d6565b6001836020036101000a03801982511681845116808217855250505050505090500191505090815260200160405180910390208054600181600116156101000203166002900480601f0160208091040260200160405190810160405280929190818152602001828054600181600116156101000203166002900480156103c25780601f10610397576101008083540402835291602001916103c2565b820191906000526020600020905b8154815290600101906020018083116103a557829003601f168201915b50505050509050919050565b806001836040518082805190602001908083835b60208310151561040757805182526020820191506020810190506020830392506103e2565b6001836020036101000a0380198251168184511680821785525050505050509050019150509081526020016040518091039020908051906020019061044d929190610452565b505050565b828054600181600116156101000203166002900490600052602060002090601f016020900481019282601f1061049357805160ff19168380011785556104c1565b828001600101855582156104c1579182015b828111156104c05782518255916020019190600101906104a5565b5b5090506104ce91906104d2565b5090565b6104f491905b808211156104f05760008160009055506001016104d8565b5090565b9056fea165627a7a72305820235160385dbe32fb2fbc2465e4383b2a4194a379c9378e8526aea3201a05f2fe0029",
  "source": "pragma solidity ^0.5;\n\ncontract JWKS {\n  address admin;\n  \n  mapping(string => bytes) keys;\n\n  constructor() public {\n    admin = msg.sender;\n  }\n\n  function addKey(string memory kid, bytes memory modulus) public {\n    keys[kid] = modulus;\n  }\n\n  function getModulus(string memory kid) public view returns (bytes memory) {\n    return keys[kid];\n  }\n}",
  "sourcePath": "/mnt/d/lv/solidity-jwt/contracts/JWKS.sol",
  "compiler": {
    "name": "solc",
    "version": "0.5.4+commit.9549d8ff.Emscripten.clang"
  },
  "schemaVersion": "3.4.16",
  "updatedAt": "2024-11-19T04:28:10.302Z",
  "devdoc": {
    "methods": {}
  },
  "userdoc": {
    "methods": {}
  }
}