{
  "contractName": "JWT",
  "abi": [
    {
      "constant": true,
      "inputs": [
        {
          "name": "json",
          "type": "string"
        }
      ],
      "name": "getSub",
      "outputs": [
        {
          "name": "",
          "type": "string"
        }
      ],
      "payable": false,
      "stateMutability": "pure",
      "type": "function"
    }
  ],
  "bytecode": "0x608060405234801561001057600080fd5b50611f08806100206000396000f3fe608060405234801561001057600080fd5b506004361061002b5760003560e01c806394b4dca114610030575b600080fd5b6100e96004803603602081101561004657600080fd5b810190808035906020019064010000000081111561006357600080fd5b82018360208201111561007557600080fd5b8035906020019184600183028401116401000000008311171561009757600080fd5b91908080601f016020809104026020016040519081016040528093929190818152602001838380828437600081840152601f19601f820116905080830192505050505050509192919290505050610164565b6040518080602001828103825283818151815260200191508051906020019080838360005b8381101561012957808201518184015260208101905061010e565b50505050905090810190601f1680156101565780820380516001836020036101000a031916815260200191505b509250505060405180910390f35b606060006060600061018060148661056a90919063ffffffff16565b9250925092506000831415156101fe576040517f08c379a00000000000000000000000000000000000000000000000000000000081526004018080602001828103825260118152602001807f4a534f4e207061727365206661696c656400000000000000000000000000000081525060200191505060405180910390fd5b6001600481111561020b57fe5b82600081518110151561021a57fe5b9060200190602002015160000151600481111561023357fe5b1415156102a8576040517f08c379a000000000000000000000000000000000000000000000000000000000815260040180806020018281038252601c8152602001807f4578706563746564204a575420746f20626520616e206f626a6563740000000081525060200191505060405180910390fd5b6000600190505b818110156104f757600360048111156102c457fe5b83828151811015156102d257fe5b906020019060200201516000015160048111156102eb57fe5b141515610343576040517f08c379a0000000000000000000000000000000000000000000000000000000008152600401808060200182810382526028815260200180611eb56028913960400191505060405180910390fd5b6060610390848381518110151561035657fe5b9060200190602002015160200151858481518110151561037257fe5b9060200190602002015160600151896111e39092919063ffffffff16565b905060006103dc6040805190810160405280600381526020017f7375620000000000000000000000000000000000000000000000000000000000815250836112a590919063ffffffff16565b14156104eb57600360048111156103ef57fe5b846001840181518110151561040057fe5b9060200190602002015160000151600481111561041957fe5b14151561048e576040517f08c379a000000000000000000000000000000000000000000000000000000000815260040180806020018281038252601b8152602001807f45787065637465642073756220746f206265206120737472696e67000000000081525060200191505060405180910390fd5b6104df84600184018151811015156104a257fe5b906020019060200201516020015185600185018151811015156104c157fe5b9060200190602002015160600151896111e39092919063ffffffff16565b95505050505050610565565b600282019150506102af565b6040517f08c379a00000000000000000000000000000000000000000000000000000000081526004018080602001828103825260208152602001807f436f756c64206e6f742066696e642073756220696e204a5754206f626a65637481525060200191505060405180910390fd5b919050565b6000606060006060859050600061057f611e00565b6105888761146f565b80965081925050506000808260200151905060006105a4611e22565b5b8651856000015110156111c65760008786600001518151811015156105c657fe5b90602001015160f81c60f81b9050607b60f81b817effffffffffffffffffffffffffffffffffffffffffffffffffffffffffffff1916148061062d5750605b60f81b817effffffffffffffffffffffffffffffffffffffffffffffffffffffffffffff1916145b1561075b578380600101945050610644868b61150d565b809350819850505086151561066e5760038a60008090509a509a509a5050505050505050506111dc565b7fffffffffffffffffffffffffffffffffffffffffffffffffffffffffffffffff86604001511415156106cd578986604001518151811015156106ad57fe5b9060200190602002015160a001805180919060010160ff1660ff16815250505b607b60f81b817effffffffffffffffffffffffffffffffffffffffffffffffffffffffffffff191614610701576002610704565b60015b8260000190600481111561071457fe5b9081600481111561072157fe5b81525050856000015182602001818152505060018260400190151590811515815250506001866020015103866040018181525050506111b1565b607d60f81b817effffffffffffffffffffffffffffffffffffffffffffffffffffffffffffff191614806107b45750605d60f81b817effffffffffffffffffffffffffffffffffffffffffffffffffffffffffffff1916145b156109ef576000607d60f81b827effffffffffffffffffffffffffffffffffffffffffffffffffffffffffffff1916146107ef5760026107f2565b60015b90506000809050600188602001510394505b600085101515610911578b8581518110151561081c57fe5b9060200190602002015193508360400151801561083b57508360800151155b156109035781600481111561084c57fe5b8460000151600481111561085c57fe5b1415156108805760018c60008090509c509c509c50505050505050505050506111dc565b7fffffffffffffffffffffffffffffffffffffffffffffffffffffffffffffffff88604001818152505060018860000151018c868151811015156108c057fe5b90602001906020020151606001818152505060018c868151811015156108e257fe5b90602001906020020151608001901515908115158152505060019050610911565b848060019003955050610804565b8015156109355760018c60008090509c509c509c50505050505050505050506111dc565b5b600085111561098e578b8581518110151561094d57fe5b9060200190602002015193508360400151801561096c57508360800151155b15610980578488604001818152505061098e565b848060019003955050610936565b60008514156109e7578b858151811015156109a557fe5b906020019060200201519350836040015180156109c457508360800151155b156109e657846fffffffffffffffffffffffffffffffff168860400181815250505b5b5050506111b1565b7f2200000000000000000000000000000000000000000000000000000000000000817effffffffffffffffffffffffffffffffffffffffffffffffffffffffffffff19161415610ad757610a44868b8a6115df565b9450600085141515610a6a57848a60008090509a509a509a5050505050505050506111dc565b83806001019450507fffffffffffffffffffffffffffffffffffffffffffffffffffffffffffffffff8660400151141515610ad157898660400151815181101515610ab157fe5b9060200190602002015160a001805180919060010160ff1660ff16815250505b506111b1565b7f2000000000000000000000000000000000000000000000000000000000000000817effffffffffffffffffffffffffffffffffffffffffffffffffffffffffffff19161480610b4c5750601160f81b817effffffffffffffffffffffffffffffffffffffffffffffffffffffffffffff1916145b80610b7c5750601260f81b817effffffffffffffffffffffffffffffffffffffffffffffffffffffffffffff1916145b80610bac5750601460f81b817effffffffffffffffffffffffffffffffffffffffffffffffffffffffffffff1916145b15610bb757506111b1565b7f3a00000000000000000000000000000000000000000000000000000000000000817effffffffffffffffffffffffffffffffffffffffffffffffffffffffffffff19161415610c18576001866020015103866040018181525050506111b1565b7f2c00000000000000000000000000000000000000000000000000000000000000817effffffffffffffffffffffffffffffffffffffffffffffffffffffffffffff19161415610e09577fffffffffffffffffffffffffffffffffffffffffffffffffffffffffffffffff866040015114158015610ccc575060026004811115610c9e57fe5b8a8760400151815181101515610cb057fe5b90602001906020020151600001516004811115610cc957fe5b14155b8015610d0e575060016004811115610ce057fe5b8a8760400151815181101515610cf257fe5b90602001906020020151600001516004811115610d0b57fe5b14155b15610e0357600186602001510392505b600083101515610e025760026004811115610d3557fe5b8a84815181101515610d4357fe5b90602001906020020151600001516004811115610d5c57fe5b1480610d99575060016004811115610d7057fe5b8a84815181101515610d7e57fe5b90602001906020020151600001516004811115610d9757fe5b145b15610df4578983815181101515610dac57fe5b90602001906020020151604001518015610ddf57508983815181101515610dcf57fe5b9060200190602002015160800151155b15610df35782866040018181525050610e02565b5b828060019003935050610d1e565b5b506111b1565b7f3000000000000000000000000000000000000000000000000000000000000000817effffffffffffffffffffffffffffffffffffffffffffffffffffffffffffff191610158015610e9d57507f3900000000000000000000000000000000000000000000000000000000000000817effffffffffffffffffffffffffffffffffffffffffffffffffffffffffffff191611155b80610ee957507f2d00000000000000000000000000000000000000000000000000000000000000817effffffffffffffffffffffffffffffffffffffffffffffffffffffffffffff1916145b80610f3557507f6600000000000000000000000000000000000000000000000000000000000000817effffffffffffffffffffffffffffffffffffffffffffffffffffffffffffff1916145b80610f8157507f7400000000000000000000000000000000000000000000000000000000000000817effffffffffffffffffffffffffffffffffffffffffffffffffffffffffffff1916145b80610fcd57507f6e00000000000000000000000000000000000000000000000000000000000000817effffffffffffffffffffffffffffffffffffffffffffffffffffffffffffff1916145b15611133577fffffffffffffffffffffffffffffffffffffffffffffffffffffffffffffffff86604001511415156110955789866040015181518110151561101157fe5b9060200190602002015191506001600481111561102a57fe5b8260000151600481111561103a57fe5b148061107457506003600481111561104e57fe5b8260000151600481111561105e57fe5b148015611073575060008260a0015160ff1614155b5b156110945760018a60008090509a509a509a5050505050505050506111dc565b5b6110a0868b8a611a93565b94506000851415156110c657848a60008090509a509a509a5050505050505050506111dc565b83806001019450507fffffffffffffffffffffffffffffffffffffffffffffffffffffffffffffffff866040015114151561112d5789866040015181518110151561110d57fe5b9060200190602002015160a001805180919060010160ff1660ff16815250505b506111b1565b602060f81b817effffffffffffffffffffffffffffffffffffffffffffffffffffffffffffff19161015801561118f5750607e60f81b817effffffffffffffffffffffffffffffffffffffffffffffffffffffffffffff191611155b156111af5760018a60008090509a509a509a5050505050505050506111dc565b505b846000018051809190600101815250506105a5565b6000898660200151995099509950505050505050505b9250925092565b60608084905060608484036040519080825280601f01601f1916602001820160405280156112205781602001600182028038833980820191505090505b50905060008590505b8481101561129857828181518110151561123f57fe5b90602001015160f81c60f81b8287830381518110151561125b57fe5b9060200101907effffffffffffffffffffffffffffffffffffffffffffffffffffffffffffff1916908160001a9053508080600101915050611229565b5080925050509392505050565b60006060839050606083905060008251905080825110156112c557815190505b60008090505b818110156114155782818151811015156112e157fe5b90602001015160f81c60f81b7effffffffffffffffffffffffffffffffffffffffffffffffffffffffffffff1916848281518110151561131d57fe5b90602001015160f81c60f81b7effffffffffffffffffffffffffffffffffffffffffffffffffffffffffffff1916101561137d577fffffffffffffffffffffffffffffffffffffffffffffffffffffffffffffffff945050505050611469565b828181518110151561138b57fe5b90602001015160f81c60f81b7effffffffffffffffffffffffffffffffffffffffffffffffffffffffffffff191684828151811015156113c757fe5b90602001015160f81c60f81b7effffffffffffffffffffffffffffffffffffffffffffffffffffffffffffff19161115611408576001945050505050611469565b80806001019150506112cb565b5081518351101561144b577fffffffffffffffffffffffffffffffffffffffffffffffffffffffffffffffff9350505050611469565b8151835111156114615760019350505050611469565b600093505050505b92915050565b611477611e00565b6060611481611e00565b60606040519081016040528060008152602001600081526020017fffffffffffffffffffffffffffffffffffffffffffffffffffffffffffffffff81525090506060846040519080825280602002602001820160405280156114fd57816020015b6114ea611e6b565b8152602001906001900390816114e25790505b5090508181935093505050915091565b6000611517611e22565b8251846020015110151561154f57600083600185510381518110151561153957fe5b90602001906020020151809050915091506115d8565b611557611e22565b60c0604051908101604052806000600481111561157057fe5b81526020016000815260200160001515815260200160008152602001600015158152602001600060ff168152509050808486602001518151811015156115b257fe5b906020019060200201819052508460200180518091906001018152505060018192509250505b9250929050565b6000808460000151905060006115f3611e22565b866000018051809190600101815250505b845187600001511015611a7a57600085886000015181518110151561162557fe5b90602001015160f81c60f81b90507f2200000000000000000000000000000000000000000000000000000000000000817effffffffffffffffffffffffffffffffffffffffffffffffffffffffffffff191614156116ce57611687888861150d565b80935081945050508215156116ad57838860000181815250506003945050505050611a8c565b6116c1826003600187018b60000151611d8f565b6000945050505050611a8c565b605c8160f81c60ff161480156116eb575085516001896000015101105b15611a6357876000018051809190600101815250507f220000000000000000000000000000000000000000000000000000000000000086896000015181518110151561173357fe5b90602001015160f81c60f81b7effffffffffffffffffffffffffffffffffffffffffffffffffffffffffffff191614806117cb57507f2f0000000000000000000000000000000000000000000000000000000000000086896000015181518110151561179b57fe5b90602001015160f81c60f81b7effffffffffffffffffffffffffffffffffffffffffffffffffffffffffffff1916145b8061183457507f5c0000000000000000000000000000000000000000000000000000000000000086896000015181518110151561180457fe5b90602001015160f81c60f81b7effffffffffffffffffffffffffffffffffffffffffffffffffffffffffffff1916145b8061189d57507f660000000000000000000000000000000000000000000000000000000000000086896000015181518110151561186d57fe5b90602001015160f81c60f81b7effffffffffffffffffffffffffffffffffffffffffffffffffffffffffffff1916145b8061190657507f72000000000000000000000000000000000000000000000000000000000000008689600001518151811015156118d657fe5b90602001015160f81c60f81b7effffffffffffffffffffffffffffffffffffffffffffffffffffffffffffff1916145b8061196f57507f6e0000000000000000000000000000000000000000000000000000000000000086896000015181518110151561193f57fe5b90602001015160f81c60f81b7effffffffffffffffffffffffffffffffffffffffffffffffffffffffffffff1916145b806119d857507f62000000000000000000000000000000000000000000000000000000000000008689600001518151811015156119a857fe5b90602001015160f81c60f81b7effffffffffffffffffffffffffffffffffffffffffffffffffffffffffffff1916145b80611a4157507f7400000000000000000000000000000000000000000000000000000000000000868960000151815181101515611a1157fe5b90602001015160f81c60f81b7effffffffffffffffffffffffffffffffffffffffffffffffffffffffffffff1916145b15611a4c5750611a65565b838860000181815250506001945050505050611a8c565b505b86600001805180919060010181525050611604565b82876000018181525050600293505050505b9392505050565b60008060009050600085600001519050600080611aae611e22565b5b865189600001511015611d0c57868960000151815181101515611ace57fe5b90602001015160f81c60f81b92507f2000000000000000000000000000000000000000000000000000000000000000837effffffffffffffffffffffffffffffffffffffffffffffffffffffffffffff19161480611b6d57507f0900000000000000000000000000000000000000000000000000000000000000837effffffffffffffffffffffffffffffffffffffffffffffffffffffffffffff1916145b80611bb957507f0a00000000000000000000000000000000000000000000000000000000000000837effffffffffffffffffffffffffffffffffffffffffffffffffffffffffffff1916145b80611c0557507f0d00000000000000000000000000000000000000000000000000000000000000837effffffffffffffffffffffffffffffffffffffffffffffffffffffffffffff1916145b80611c5157507f2c00000000000000000000000000000000000000000000000000000000000000837effffffffffffffffffffffffffffffffffffffffffffffffffffffffffffff1916145b80611c815750607d60f81b837effffffffffffffffffffffffffffffffffffffffffffffffffffffffffffff1916145b80611cb15750605d60f81b837effffffffffffffffffffffffffffffffffffffffffffffffffffffffffffff1916145b15611cbf5760019450611d0c565b60208360f81c60ff161080611cda5750607f8360f81c60ff16115b15611cf75783896000018181525050600195505050505050611d88565b88600001805180919060010181525050611aaf565b841515611d2b5783896000018181525050600295505050505050611d88565b611d35898961150d565b8092508193505050811515611d5c5783896000018181525050600395505050505050611d88565b611d6d816004868c60000151611d8f565b88600001805180919060019003815250506000955050505050505b9392505050565b8284600001906004811115611da057fe5b90816004811115611dad57fe5b8152505081846020018181525050600184604001901515908115158152505080846060018181525050600184608001901515908115158152505060008460a0019060ff16908160ff168152505050505050565b6060604051908101604052806000815260200160008152602001600081525090565b60c06040519081016040528060006004811115611e3b57fe5b81526020016000815260200160001515815260200160008152602001600015158152602001600060ff1681525090565b60c06040519081016040528060006004811115611e8457fe5b81526020016000815260200160001515815260200160008152602001600015158152602001600060ff168152509056fe4578706563746564204a575420746f20636f6e7461696e206f6e6c7920737472696e67206b657973a165627a7a7230582069d478426b5865050fbc429b4c4d6d2ee93ab777a309b301b4976520294055020029",
  "source": "pragma solidity ^0.5.0;\n\nimport \"./JsmnSolLib.sol\";\n\ncontract JWT {\n    using JsmnSolLib for string;\n    \n    function getSub(string memory json) public pure returns (string memory) {\n        (uint exitCode, JsmnSolLib.Token[] memory tokens, uint ntokens) = json.parse(20);\n        require(exitCode == 0, \"JSON parse failed\");\n        \n        require(tokens[0].jsmnType == JsmnSolLib.JsmnType.OBJECT, \"Expected JWT to be an object\");\n        uint i = 1;\n        while (i < ntokens) {\n            require(tokens[i].jsmnType == JsmnSolLib.JsmnType.STRING, \"Expected JWT to contain only string keys\");\n            string memory key = json.getBytes(tokens[i].start, tokens[i].end);\n            if (key.strCompare(\"sub\") == 0) {\n                require(tokens[i+1].jsmnType == JsmnSolLib.JsmnType.STRING, \"Expected sub to be a string\");\n                return json.getBytes(tokens[i+1].start, tokens[i+1].end);\n            }\n            i += 2;\n        }\n        \n        revert(\"Could not find sub in JWT object\");\n    }\n}\n",
  "sourcePath": "/mnt/d/lv/solidity-jwt/contracts/JWT.sol",
  "compiler": {
    "name": "solc",
    "version": "0.5.4+commit.9549d8ff.Emscripten.clang"
  },
  "schemaVersion": "3.4.16",
  "updatedAt": "2024-11-19T04:28:10.315Z",
  "devdoc": {
    "methods": {}
  },
  "userdoc": {
    "methods": {}
  }
}