{
  "contractName": "TestIdentity",
  "abi": [
    {
      "constant": true,
      "inputs": [],
      "name": "subject",
      "outputs": [
        {
          "name": "",
          "type": "string"
        }
      ],
      "payable": false,
      "stateMutability": "view",
      "type": "function"
    },
    {
      "constant": true,
      "inputs": [],
      "name": "audience",
      "outputs": [
        {
          "name": "",
          "type": "string"
        }
      ],
      "payable": false,
      "stateMutability": "view",
      "type": "function"
    },
    {
      "constant": true,
      "inputs": [],
      "name": "keys",
      "outputs": [
        {
          "name": "",
          "type": "address"
        }
      ],
      "payable": false,
      "stateMutability": "view",
      "type": "function"
    },
    {
      "constant": true,
      "inputs": [
        {
          "name": "",
          "type": "address"
        }
      ],
      "name": "accounts",
      "outputs": [
        {
          "name": "",
          "type": "bool"
        }
      ],
      "payable": false,
      "stateMutability": "view",
      "type": "function"
    },
    {
      "constant": false,
      "inputs": [
        {
          "name": "headerJson",
          "type": "string"
        },
        {
          "name": "payloadJson",
          "type": "string"
        },
        {
          "name": "signature",
          "type": "bytes"
        }
      ],
      "name": "recover",
      "outputs": [],
      "payable": false,
      "stateMutability": "nonpayable",
      "type": "function"
    },
    {
      "constant": true,
      "inputs": [],
      "name": "getAccounts",
      "outputs": [
        {
          "name": "",
          "type": "address[]"
        }
      ],
      "payable": false,
      "stateMutability": "view",
      "type": "function"
    },
    {
      "inputs": [
        {
          "name": "sub",
          "type": "string"
        },
        {
          "name": "aud",
          "type": "string"
        }
      ],
      "payable": true,
      "stateMutability": "payable",
      "type": "constructor"
    }
  ],
  "bytecode": "0x6080604052604051620040d0380380620040d0833981018060405260408110156200002957600080fd5b8101908080516401000000008111156200004257600080fd5b828101905060208101848111156200005957600080fd5b81518560018202830111640100000000821117156200007757600080fd5b505092919060200180516401000000008111156200009457600080fd5b82810190506020810184811115620000ab57600080fd5b8151856001820283011164010000000082111715620000c957600080fd5b50509291905050508181600060016000803373ffffffffffffffffffffffffffffffffffffffff1673ffffffffffffffffffffffffffffffffffffffff16815260200190815260200160002060006101000a81548160ff02191690831515021790555060013390806001815401808255809150509060018203906000526020600020016000909192909190916101000a81548173ffffffffffffffffffffffffffffffffffffffff021916908373ffffffffffffffffffffffffffffffffffffffff160217905550508160029080519060200190620001aa92919062000210565b508260039080519060200190620001c392919062000210565b5080600460006101000a81548173ffffffffffffffffffffffffffffffffffffffff021916908373ffffffffffffffffffffffffffffffffffffffff1602179055505050505050620002bf565b828054600181600116156101000203166002900490600052602060002090601f016020900481019282601f106200025357805160ff191683800117855562000284565b8280016001018555821562000284579182015b828111156200028357825182559160200191906001019062000266565b5b50905062000293919062000297565b5090565b620002bc91905b80821115620002b85760008160009055506001016200029e565b5090565b90565b613e0180620002cf6000396000f3fe608060405234801561001057600080fd5b50600436106100625760003560e01c80630a59a98c146100675780631ee1f800146100ea578063307540f61461016d5780635e5c06e2146101b75780637fac7eec146102135780638a48ac03146103fc575b600080fd5b61006f61045b565b6040518080602001828103825283818151815260200191508051906020019080838360005b838110156100af578082015181840152602081019050610094565b50505050905090810190601f1680156100dc5780820380516001836020036101000a031916815260200191505b509250505060405180910390f35b6100f26104f9565b6040518080602001828103825283818151815260200191508051906020019080838360005b83811015610132578082015181840152602081019050610117565b50505050905090810190601f16801561015f5780820380516001836020036101000a031916815260200191505b509250505060405180910390f35b610175610597565b604051808273ffffffffffffffffffffffffffffffffffffffff1673ffffffffffffffffffffffffffffffffffffffff16815260200191505060405180910390f35b6101f9600480360360208110156101cd57600080fd5b81019080803573ffffffffffffffffffffffffffffffffffffffff1690602001909291905050506105bd565b604051808215151515815260200191505060405180910390f35b6103fa6004803603606081101561022957600080fd5b810190808035906020019064010000000081111561024657600080fd5b82018360208201111561025857600080fd5b8035906020019184600183028401116401000000008311171561027a57600080fd5b91908080601f016020809104026020016040519081016040528093929190818152602001838380828437600081840152601f19601f820116905080830192505050505050509192919290803590602001906401000000008111156102dd57600080fd5b8201836020820111156102ef57600080fd5b8035906020019184600183028401116401000000008311171561031157600080fd5b91908080601f016020809104026020016040519081016040528093929190818152602001838380828437600081840152601f19601f8201169050808301925050505050505091929192908035906020019064010000000081111561037457600080fd5b82018360208201111561038657600080fd5b803590602001918460018302840111640100000000831117156103a857600080fd5b91908080601f016020809104026020016040519081016040528093929190818152602001838380828437600081840152601f19601f8201169050808301925050505050505091929192905050506105dd565b005b610404610b6a565b6040518080602001828103825283818151815260200191508051906020019060200280838360005b8381101561044757808201518184015260208101905061042c565b505050509050019250505060405180910390f35b60038054600181600116156101000203166002900480601f0160208091040260200160405190810160405280929190818152602001828054600181600116156101000203166002900480156104f15780601f106104c6576101008083540402835291602001916104f1565b820191906000526020600020905b8154815290600101906020018083116104d457829003601f168201915b505050505081565b60028054600181600116156101000203166002900480601f01602080910402602001604051908101604052809291908181526020018280546001816001161561010002031660029004801561058f5780601f106105645761010080835404028352916020019161058f565b820191906000526020600020905b81548152906001019060200180831161057257829003601f168201915b505050505081565b600460009054906101000a900473ffffffffffffffffffffffffffffffffffffffff1681565b60006020528060005260406000206000915054906101000a900460ff1681565b60606105e884610bf8565b905060606105f584610bf8565b90506060600260405190808252806020026020018201604052801561063457816020015b610621613ae1565b8152602001906001900390816106195790505b50905061064083610f63565b81600081518110151561064f57fe5b9060200190602002018190525061066582610f63565b81600181518110151561067457fe5b9060200190602002018190525060606106d3826106c56040805190810160405280600181526020017f2e00000000000000000000000000000000000000000000000000000000000000815250610f63565b610f9190919063ffffffff16565b905060606106e0886110f5565b905060606106ed82611492565b905060606106fa836114b5565b90506000610715898484886114db909392919063ffffffff16565b14151561078a576040517f08c379a000000000000000000000000000000000000000000000000000000000815260040180806020018281038252601a8152602001807f525341207369676e617475726520636865636b206661696c656400000000000081525060200191505060405180910390fd5b60608060606107988c611592565b925092509250600061084d60028054600181600116156101000203166002900480601f0160208091040260200160405190810160405280929190818152602001828054600181600116156101000203166002900480156108395780601f1061080e57610100808354040283529160200191610839565b820191906000526020600020905b81548152906001019060200180831161081c57829003601f168201915b505050505085611bd490919063ffffffff16565b1480610857575060015b15156108cb576040517f08c379a00000000000000000000000000000000000000000000000000000000081526004018080602001828103825260178152602001807f41756469656e636520646f6573206e6f74206d6174636800000000000000000081525060200191505060405180910390fd5b600061097a60038054600181600116156101000203166002900480601f0160208091040260200160405190810160405280929190818152602001828054600181600116156101000203166002900480156109665780601f1061093b57610100808354040283529160200191610966565b820191906000526020600020905b81548152906001019060200180831161094957829003601f168201915b505050505083611bd490919063ffffffff16565b1415156109ef576040517f08c379a00000000000000000000000000000000000000000000000000000000081526004018080602001828103825260168152602001807f5375626a65637420646f6573206e6f74206d617463680000000000000000000081525060200191505060405180910390fd5b6060610a4833604051602001808273ffffffffffffffffffffffffffffffffffffffff1673ffffffffffffffffffffffffffffffffffffffff1660601b8152601401915050604051602081830303815290604052610bf8565b90506000803373ffffffffffffffffffffffffffffffffffffffff1673ffffffffffffffffffffffffffffffffffffffff16815260200190815260200160002060009054906101000a900460ff161515610b5a5760016000803373ffffffffffffffffffffffffffffffffffffffff1673ffffffffffffffffffffffffffffffffffffffff16815260200190815260200160002060006101000a81548160ff02191690831515021790555060013390806001815401808255809150509060018203906000526020600020016000909192909190916101000a81548173ffffffffffffffffffffffffffffffffffffffff021916908373ffffffffffffffffffffffffffffffffffffffff160217905550505b5050505050505050505050505050565b60606001805480602002602001604051908101604052809291908181526020018280548015610bee57602002820191906000526020600020905b8160009054906101000a900473ffffffffffffffffffffffffffffffffffffffff1673ffffffffffffffffffffffffffffffffffffffff1681526020019060010190808311610ba4575b5050505050905090565b606080829050600060038251811515610c0d57fe5b0690506000600382600303811515610c2157fe5b06600460036002865101811515610c3457fe5b04020390506060816040519080825280601f01601f191660200182016040528015610c6e5781602001600182028038833980820191505090505b509050600080905060008090505b855160038301111515610e0157610cf78683815181101515610c9a57fe5b90602001015160f81c60f81b60f81c60ff168760018501815181101515610cbd57fe5b90602001015160f81c60f81b60f81c60ff168860028601815181101515610ce057fe5b90602001015160f81c60f81b60f81c60ff16611d9e565b8685815181101515610d0557fe5b90602001018760018701815181101515610d1b57fe5b90602001018860028801815181101515610d3157fe5b90602001018960038901815181101515610d4757fe5b9060200101847effffffffffffffffffffffffffffffffffffffffffffffffffffffffffffff191660001a9053847effffffffffffffffffffffffffffffffffffffffffffffffffffffffffffff191660001a9053847effffffffffffffffffffffffffffffffffffffffffffffffffffffffffffff191660001a9053847effffffffffffffffffffffffffffffffffffffffffffffffffffffffffffff191660001a905350505050600481019050600382019150610c7c565b600085141515610f555760008686885103815181101515610e1e57fe5b90602001015160f81c60f81b60f81c905060008090506002871415610e6157876001895103815181101515610e4f57fe5b90602001015160f81c60f81b60f81c90505b600080600080610e798660ff168660ff166000611d9e565b9350935093509350838988815181101515610e9057fe5b9060200101907effffffffffffffffffffffffffffffffffffffffffffffffffffffffffffff1916908160001a905350828960018901815181101515610ed257fe5b9060200101907effffffffffffffffffffffffffffffffffffffffffffffffffffffffffffff1916908160001a90535060028b1415610f4e57818960028901815181101515610f1d57fe5b9060200101907effffffffffffffffffffffffffffffffffffffffffffffffffffffffffffff1916908160001a9053505b5050505050505b829650505050505050919050565b610f6b613afb565b600060208301905060408051908101604052808451815260200182815250915050919050565b6060600082511415610fb557602060405190810160405280600081525090506110ef565b60006001835103846000015102905060008090505b8351811015611000578381815181101515610fe157fe5b9060200190602002015160000151820191508080600101915050610fca565b506060816040519080825280601f01601f1916602001820160405280156110365781602001600182028038833980820191505090505b509050600060208201905060008090505b85518110156110e75761109182878381518110151561106257fe5b9060200190602002015160200151888481518110151561107e57fe5b9060200190602002015160000151611ec3565b858181518110151561109f57fe5b90602001906020020151600001518201915060018651038110156110da576110d08288602001518960000151611ec3565b8660000151820191505b8080600101915050611047565b508193505050505b92915050565b6060600060606000611111601486611f0e90919063ffffffff16565b92509250925060008314151561118f576040517f08c379a00000000000000000000000000000000000000000000000000000000081526004018080602001828103825260118152602001807f4a534f4e207061727365206661696c656400000000000000000000000000000081525060200191505060405180910390fd5b6001600481111561119c57fe5b8260008151811015156111ab57fe5b906020019060200201516000015160048111156111c457fe5b141515611239576040517f08c379a000000000000000000000000000000000000000000000000000000000815260040180806020018281038252601c8152602001807f4578706563746564204a575420746f20626520616e206f626a6563740000000081525060200191505060405180910390fd5b6000600190505b81811015611488576003600481111561125557fe5b838281518110151561126357fe5b9060200190602002015160000151600481111561127c57fe5b1415156112d4576040517f08c379a0000000000000000000000000000000000000000000000000000000008152600401808060200182810382526028815260200180613dae6028913960400191505060405180910390fd5b606061132184838151811015156112e757fe5b9060200190602002015160200151858481518110151561130357fe5b906020019060200201516060015189612b879092919063ffffffff16565b9050600061136d6040805190810160405280600381526020017f6b6964000000000000000000000000000000000000000000000000000000000081525083611bd490919063ffffffff16565b141561147c576003600481111561138057fe5b846001840181518110151561139157fe5b906020019060200201516000015160048111156113aa57fe5b14151561141f576040517f08c379a000000000000000000000000000000000000000000000000000000000815260040180806020018281038252601b8152602001807f4578706563746564206b696420746f206265206120737472696e67000000000081525060200191505060405180910390fd5b611470846001840181518110151561143357fe5b9060200190602002015160200151856001850181518110151561145257fe5b906020019060200201516060015189612b879092919063ffffffff16565b9550505050505061148d565b60028201915050611240565b505050505b919050565b606060a06040519081016040528060808152602001613bee608091399050919050565b6060610120604051908101604052806101008152602001613cae61010091399050919050565b60006115886002866040518082805190602001908083835b60208310151561151857805182526020820191506020810190506020830392506114f3565b6001836020036101000a038019825116818451168082178552505050505050905001915050602060405180830381855afa15801561155a573d6000803e3d6000fd5b5050506040513d602081101561156f57600080fd5b8101908080519060200190929190505050858585612c49565b9050949350505050565b60608060606000606060006115b1602888611f0e90919063ffffffff16565b92509250925060008314151561162f576040517f08c379a00000000000000000000000000000000000000000000000000000000081526004018080602001828103825260118152602001807f4a534f4e207061727365206661696c656400000000000000000000000000000081525060200191505060405180910390fd5b6001600481111561163c57fe5b82600081518110151561164b57fe5b9060200190602002015160000151600481111561166457fe5b1415156116d9576040517f08c379a000000000000000000000000000000000000000000000000000000000815260040180806020018281038252601c8152602001807f4578706563746564204a575420746f20626520616e206f626a6563740000000081525060200191505060405180910390fd5b6000600190505b81811015611bc957600360048111156116f557fe5b838281518110151561170357fe5b9060200190602002015160000151600481111561171c57fe5b141515611774576040517f08c379a0000000000000000000000000000000000000000000000000000000008152600401808060200182810382526028815260200180613dae6028913960400191505060405180910390fd5b60606117c1848381518110151561178757fe5b906020019060200201516020015185848151811015156117a357fe5b90602001906020020151606001518b612b879092919063ffffffff16565b9050600061180d6040805190810160405280600381526020017f737562000000000000000000000000000000000000000000000000000000000081525083611bd490919063ffffffff16565b1415611917576003600481111561182057fe5b846001840181518110151561183157fe5b9060200190602002015160000151600481111561184a57fe5b1415156118bf576040517f08c379a000000000000000000000000000000000000000000000000000000000815260040180806020018281038252601b8152602001807f45787065637465642073756220746f206265206120737472696e67000000000081525060200191505060405180910390fd5b61191084600184018151811015156118d357fe5b906020019060200201516020015185600185018151811015156118f257fe5b90602001906020020151606001518b612b879092919063ffffffff16565b9550611bbd565b60006119616040805190810160405280600381526020017f617564000000000000000000000000000000000000000000000000000000000081525083611bd490919063ffffffff16565b1415611a6b576003600481111561197457fe5b846001840181518110151561198557fe5b9060200190602002015160000151600481111561199e57fe5b141515611a13576040517f08c379a000000000000000000000000000000000000000000000000000000000815260040180806020018281038252601b8152602001807f45787065637465642061756420746f206265206120737472696e67000000000081525060200191505060405180910390fd5b611a648460018401815181101515611a2757fe5b90602001906020020151602001518560018501815181101515611a4657fe5b90602001906020020151606001518b612b879092919063ffffffff16565b9750611bbc565b6000611ab56040805190810160405280600581526020017f6e6f6e636500000000000000000000000000000000000000000000000000000081525083611bd490919063ffffffff16565b1415611bbb5760036004811115611ac857fe5b8460018401815181101515611ad957fe5b90602001906020020151600001516004811115611af257fe5b141515611b67576040517f08c379a000000000000000000000000000000000000000000000000000000000815260040180806020018281038252601d8152602001807f4578706563746564206e6f6e636520746f206265206120737472696e6700000081525060200191505060405180910390fd5b611bb88460018401815181101515611b7b57fe5b90602001906020020151602001518560018501815181101515611b9a57fe5b90602001906020020151606001518b612b879092919063ffffffff16565b96505b5b5b600282019150506116e0565b505050509193909250565b6000606083905060608390506000825190508082511015611bf457815190505b60008090505b81811015611d44578281815181101515611c1057fe5b90602001015160f81c60f81b7effffffffffffffffffffffffffffffffffffffffffffffffffffffffffffff19168482815181101515611c4c57fe5b90602001015160f81c60f81b7effffffffffffffffffffffffffffffffffffffffffffffffffffffffffffff19161015611cac577fffffffffffffffffffffffffffffffffffffffffffffffffffffffffffffffff945050505050611d98565b8281815181101515611cba57fe5b90602001015160f81c60f81b7effffffffffffffffffffffffffffffffffffffffffffffffffffffffffffff19168482815181101515611cf657fe5b90602001015160f81c60f81b7effffffffffffffffffffffffffffffffffffffffffffffffffffffffffffff19161115611d37576001945050505050611d98565b8080600101915050611bfa565b50815183511015611d7a577fffffffffffffffffffffffffffffffffffffffffffffffffffffffffffffffff9350505050611d98565b815183511115611d905760019350505050611d98565b600093505050505b92915050565b600080600080600085600888901b60108a901b171790506000603f601283901c1690506000603f600c84901c1690506000603f600685901c1690506000603f8516905060606040519081016040528060408152602001613c6e6040913984815181101515611e0857fe5b90602001015160f81c60f81b985060606040519081016040528060408152602001613c6e6040913983815181101515611e3d57fe5b90602001015160f81c60f81b975060606040519081016040528060408152602001613c6e6040913982815181101515611e7257fe5b90602001015160f81c60f81b965060606040519081016040528060408152602001613c6e6040913981815181101515611ea757fe5b90602001015160f81c60f81b9550505050505093509350935093565b5b602081101515611ee95781518352602083019250602082019150602081039050611ec4565b60006001826020036101000a0390508019835116818551168181178652505050505050565b60006060600060608590506000611f23613b15565b611f2c87613031565b8096508192505050600080826020015190506000611f48613b37565b5b865185600001511015612b6a576000878660000151815181101515611f6a57fe5b90602001015160f81c60f81b9050607b60f81b817effffffffffffffffffffffffffffffffffffffffffffffffffffffffffffff19161480611fd15750605b60f81b817effffffffffffffffffffffffffffffffffffffffffffffffffffffffffffff1916145b156120ff578380600101945050611fe8868b6130cf565b80935081985050508615156120125760038a60008090509a509a509a505050505050505050612b80565b7fffffffffffffffffffffffffffffffffffffffffffffffffffffffffffffffff86604001511415156120715789866040015181518110151561205157fe5b9060200190602002015160a001805180919060010160ff1660ff16815250505b607b60f81b817effffffffffffffffffffffffffffffffffffffffffffffffffffffffffffff1916146120a55760026120a8565b60015b826000019060048111156120b857fe5b908160048111156120c557fe5b8152505085600001518260200181815250506001826040019015159081151581525050600186602001510386604001818152505050612b55565b607d60f81b817effffffffffffffffffffffffffffffffffffffffffffffffffffffffffffff191614806121585750605d60f81b817effffffffffffffffffffffffffffffffffffffffffffffffffffffffffffff1916145b15612393576000607d60f81b827effffffffffffffffffffffffffffffffffffffffffffffffffffffffffffff191614612193576002612196565b60015b90506000809050600188602001510394505b6000851015156122b5578b858151811015156121c057fe5b906020019060200201519350836040015180156121df57508360800151155b156122a7578160048111156121f057fe5b8460000151600481111561220057fe5b1415156122245760018c60008090509c509c509c5050505050505050505050612b80565b7fffffffffffffffffffffffffffffffffffffffffffffffffffffffffffffffff88604001818152505060018860000151018c8681518110151561226457fe5b90602001906020020151606001818152505060018c8681518110151561228657fe5b906020019060200201516080019015159081151581525050600190506122b5565b8480600190039550506121a8565b8015156122d95760018c60008090509c509c509c5050505050505050505050612b80565b5b6000851115612332578b858151811015156122f157fe5b9060200190602002015193508360400151801561231057508360800151155b156123245784886040018181525050612332565b8480600190039550506122da565b600085141561238b578b8581518110151561234957fe5b9060200190602002015193508360400151801561236857508360800151155b1561238a57846fffffffffffffffffffffffffffffffff168860400181815250505b5b505050612b55565b7f2200000000000000000000000000000000000000000000000000000000000000817effffffffffffffffffffffffffffffffffffffffffffffffffffffffffffff1916141561247b576123e8868b8a6131a1565b945060008514151561240e57848a60008090509a509a509a505050505050505050612b80565b83806001019450507fffffffffffffffffffffffffffffffffffffffffffffffffffffffffffffffff86604001511415156124755789866040015181518110151561245557fe5b9060200190602002015160a001805180919060010160ff1660ff16815250505b50612b55565b7f2000000000000000000000000000000000000000000000000000000000000000817effffffffffffffffffffffffffffffffffffffffffffffffffffffffffffff191614806124f05750601160f81b817effffffffffffffffffffffffffffffffffffffffffffffffffffffffffffff1916145b806125205750601260f81b817effffffffffffffffffffffffffffffffffffffffffffffffffffffffffffff1916145b806125505750601460f81b817effffffffffffffffffffffffffffffffffffffffffffffffffffffffffffff1916145b1561255b5750612b55565b7f3a00000000000000000000000000000000000000000000000000000000000000817effffffffffffffffffffffffffffffffffffffffffffffffffffffffffffff191614156125bc57600186602001510386604001818152505050612b55565b7f2c00000000000000000000000000000000000000000000000000000000000000817effffffffffffffffffffffffffffffffffffffffffffffffffffffffffffff191614156127ad577fffffffffffffffffffffffffffffffffffffffffffffffffffffffffffffffff86604001511415801561267057506002600481111561264257fe5b8a876040015181518110151561265457fe5b9060200190602002015160000151600481111561266d57fe5b14155b80156126b257506001600481111561268457fe5b8a876040015181518110151561269657fe5b906020019060200201516000015160048111156126af57fe5b14155b156127a757600186602001510392505b6000831015156127a657600260048111156126d957fe5b8a848151811015156126e757fe5b9060200190602002015160000151600481111561270057fe5b148061273d57506001600481111561271457fe5b8a8481518110151561272257fe5b9060200190602002015160000151600481111561273b57fe5b145b1561279857898381518110151561275057fe5b906020019060200201516040015180156127835750898381518110151561277357fe5b9060200190602002015160800151155b1561279757828660400181815250506127a6565b5b8280600190039350506126c2565b5b50612b55565b7f3000000000000000000000000000000000000000000000000000000000000000817effffffffffffffffffffffffffffffffffffffffffffffffffffffffffffff19161015801561284157507f3900000000000000000000000000000000000000000000000000000000000000817effffffffffffffffffffffffffffffffffffffffffffffffffffffffffffff191611155b8061288d57507f2d00000000000000000000000000000000000000000000000000000000000000817effffffffffffffffffffffffffffffffffffffffffffffffffffffffffffff1916145b806128d957507f6600000000000000000000000000000000000000000000000000000000000000817effffffffffffffffffffffffffffffffffffffffffffffffffffffffffffff1916145b8061292557507f7400000000000000000000000000000000000000000000000000000000000000817effffffffffffffffffffffffffffffffffffffffffffffffffffffffffffff1916145b8061297157507f6e00000000000000000000000000000000000000000000000000000000000000817effffffffffffffffffffffffffffffffffffffffffffffffffffffffffffff1916145b15612ad7577fffffffffffffffffffffffffffffffffffffffffffffffffffffffffffffffff8660400151141515612a39578986604001518151811015156129b557fe5b906020019060200201519150600160048111156129ce57fe5b826000015160048111156129de57fe5b1480612a185750600360048111156129f257fe5b82600001516004811115612a0257fe5b148015612a17575060008260a0015160ff1614155b5b15612a385760018a60008090509a509a509a505050505050505050612b80565b5b612a44868b8a613655565b9450600085141515612a6a57848a60008090509a509a509a505050505050505050612b80565b83806001019450507fffffffffffffffffffffffffffffffffffffffffffffffffffffffffffffffff8660400151141515612ad157898660400151815181101515612ab157fe5b9060200190602002015160a001805180919060010160ff1660ff16815250505b50612b55565b602060f81b817effffffffffffffffffffffffffffffffffffffffffffffffffffffffffffff191610158015612b335750607e60f81b817effffffffffffffffffffffffffffffffffffffffffffffffffffffffffffff191611155b15612b535760018a60008090509a509a509a505050505050505050612b80565b505b84600001805180919060010181525050611f49565b6000898660200151995099509950505050505050505b9250925092565b60608084905060608484036040519080825280601f01601f191660200182016040528015612bc45781602001600182028038833980820191505090505b50905060008590505b84811015612c3c578281815181101515612be357fe5b90602001015160f81c60f81b82878303815181101515612bff57fe5b9060200101907effffffffffffffffffffffffffffffffffffffffffffffffffffffffffffff1916908160001a9053508080600101915050612bcd565b5080925050509392505050565b6000612c53613b80565b61026060405190810160405280603060ff168152602001603160ff168152602001603060ff168152602001600d60ff168152602001600660ff168152602001600960ff168152602001606060ff168152602001608660ff168152602001604860ff168152602001600160ff168152602001606560ff168152602001600360ff168152602001600460ff168152602001600260ff168152602001600160ff168152602001600560ff168152602001600060ff168152602001600460ff168152602001602060ff168152509050600b602060ff1660130101835110151515612d3857600080fd5b60006060612d47878787613951565b90506000815190506000865190506060816040519080825280601f01601f191660200182016040528015612d8a5781602001600182028038833980820191505090505b5090508160208201846020870160056107d05a03fa506000602060136003850303039050600060f81b826000815181101515612dc257fe5b90602001015160f81c60f81b7effffffffffffffffffffffffffffffffffffffffffffffffffffffffffffff1916141580612e1e57506001826001815181101515612e0957fe5b90602001015160f81c60f81b60f81c60ff1614155b15612e33576001975050505050505050613029565b600295505b80600201861015612ea85760ff60f81b8287815181101515612e5657fe5b90602001015160f81c60f81b7effffffffffffffffffffffffffffffffffffffffffffffffffffffffffffff1916141515612e9b576002975050505050505050613029565b8580600101965050612e38565b600060f81b8282600201815181101515612ebe57fe5b90602001015160f81c60f81b7effffffffffffffffffffffffffffffffffffffffffffffffffffffffffffff1916141515612f03576003975050505050505050613029565b600095505b6013861015612f70578686601381101515612f1f57fe5b602002015160ff1682878360030101815181101515612f3a57fe5b90602001015160f81c60f81b60f81c60ff16141515612f63576004975050505050505050613029565b8580600101965050612f08565b600095505b602060ff1686101561301d578b86602081101515612f8f57fe5b1a60f81b7effffffffffffffffffffffffffffffffffffffffffffffffffffffffffffff191682876013846003010101815181101515612fcb57fe5b90602001015160f81c60f81b7effffffffffffffffffffffffffffffffffffffffffffffffffffffffffffff1916141515613010576005975050505050505050613029565b8580600101965050612f75565b60009750505050505050505b949350505050565b613039613b15565b6060613043613b15565b60606040519081016040528060008152602001600081526020017fffffffffffffffffffffffffffffffffffffffffffffffffffffffffffffffff81525090506060846040519080825280602002602001820160405280156130bf57816020015b6130ac613ba4565b8152602001906001900390816130a45790505b5090508181935093505050915091565b60006130d9613b37565b825184602001511015156131115760008360018551038151811015156130fb57fe5b906020019060200201518090509150915061319a565b613119613b37565b60c0604051908101604052806000600481111561313257fe5b81526020016000815260200160001515815260200160008152602001600015158152602001600060ff1681525090508084866020015181518110151561317457fe5b906020019060200201819052508460200180518091906001018152505060018192509250505b9250929050565b6000808460000151905060006131b5613b37565b866000018051809190600101815250505b84518760000151101561363c5760008588600001518151811015156131e757fe5b90602001015160f81c60f81b90507f2200000000000000000000000000000000000000000000000000000000000000817effffffffffffffffffffffffffffffffffffffffffffffffffffffffffffff191614156132905761324988886130cf565b809350819450505082151561326f5783886000018181525050600394505050505061364e565b613283826003600187018b60000151613a25565b600094505050505061364e565b605c8160f81c60ff161480156132ad575085516001896000015101105b1561362557876000018051809190600101815250507f22000000000000000000000000000000000000000000000000000000000000008689600001518151811015156132f557fe5b90602001015160f81c60f81b7effffffffffffffffffffffffffffffffffffffffffffffffffffffffffffff1916148061338d57507f2f0000000000000000000000000000000000000000000000000000000000000086896000015181518110151561335d57fe5b90602001015160f81c60f81b7effffffffffffffffffffffffffffffffffffffffffffffffffffffffffffff1916145b806133f657507f5c000000000000000000000000000000000000000000000000000000000000008689600001518151811015156133c657fe5b90602001015160f81c60f81b7effffffffffffffffffffffffffffffffffffffffffffffffffffffffffffff1916145b8061345f57507f660000000000000000000000000000000000000000000000000000000000000086896000015181518110151561342f57fe5b90602001015160f81c60f81b7effffffffffffffffffffffffffffffffffffffffffffffffffffffffffffff1916145b806134c857507f720000000000000000000000000000000000000000000000000000000000000086896000015181518110151561349857fe5b90602001015160f81c60f81b7effffffffffffffffffffffffffffffffffffffffffffffffffffffffffffff1916145b8061353157507f6e0000000000000000000000000000000000000000000000000000000000000086896000015181518110151561350157fe5b90602001015160f81c60f81b7effffffffffffffffffffffffffffffffffffffffffffffffffffffffffffff1916145b8061359a57507f620000000000000000000000000000000000000000000000000000000000000086896000015181518110151561356a57fe5b90602001015160f81c60f81b7effffffffffffffffffffffffffffffffffffffffffffffffffffffffffffff1916145b8061360357507f74000000000000000000000000000000000000000000000000000000000000008689600001518151811015156135d357fe5b90602001015160f81c60f81b7effffffffffffffffffffffffffffffffffffffffffffffffffffffffffffff1916145b1561360e5750613627565b83886000018181525050600194505050505061364e565b505b866000018051809190600101815250506131c6565b82876000018181525050600293505050505b9392505050565b60008060009050600085600001519050600080613670613b37565b5b8651896000015110156138ce5786896000015181518110151561369057fe5b90602001015160f81c60f81b92507f2000000000000000000000000000000000000000000000000000000000000000837effffffffffffffffffffffffffffffffffffffffffffffffffffffffffffff1916148061372f57507f0900000000000000000000000000000000000000000000000000000000000000837effffffffffffffffffffffffffffffffffffffffffffffffffffffffffffff1916145b8061377b57507f0a00000000000000000000000000000000000000000000000000000000000000837effffffffffffffffffffffffffffffffffffffffffffffffffffffffffffff1916145b806137c757507f0d00000000000000000000000000000000000000000000000000000000000000837effffffffffffffffffffffffffffffffffffffffffffffffffffffffffffff1916145b8061381357507f2c00000000000000000000000000000000000000000000000000000000000000837effffffffffffffffffffffffffffffffffffffffffffffffffffffffffffff1916145b806138435750607d60f81b837effffffffffffffffffffffffffffffffffffffffffffffffffffffffffffff1916145b806138735750605d60f81b837effffffffffffffffffffffffffffffffffffffffffffffffffffffffffffff1916145b1561388157600194506138ce565b60208360f81c60ff16108061389c5750607f8360f81c60ff16115b156138b9578389600001818152505060019550505050505061394a565b88600001805180919060010181525050613671565b8415156138ed578389600001818152505060029550505050505061394a565b6138f789896130cf565b809250819350505081151561391e578389600001818152505060039550505050505061394a565b61392f816004868c60000151613a25565b88600001805180919060019003815250506000955050505050505b9392505050565b60606000825184518651606001010190506000855190506000855190506000855190506000806000806060886040519080825280601f01601f1916602001820160405280156139af5781602001600182028038833980820191505090505b50905060208d01945060208c01935060208b0192508760208201528660408201528560608201526020810191506139eb60608301868f51613a96565b6139fd8d516060840101858e51613a96565b613a128c518e51606085010101848d51613a96565b8099505050505050505050509392505050565b8284600001906004811115613a3657fe5b90816004811115613a4357fe5b8152505081846020018181525050600184604001901515908115158152505080846060018181525050600184608001901515908115158152505060008460a0019060ff16908160ff168152505050505050565b5b602081101515613abc5781518352602083019250602082019150602081039050613a97565b60006001826020036101000a0390508019835116818551168181178652505050505050565b604080519081016040528060008152602001600081525090565b604080519081016040528060008152602001600081525090565b6060604051908101604052806000815260200160008152602001600081525090565b60c06040519081016040528060006004811115613b5057fe5b81526020016000815260200160001515815260200160008152602001600015158152602001600060ff1681525090565b61026060405190810160405280601390602082028038833980820191505090505090565b60c06040519081016040528060006004811115613bbd57fe5b81526020016000815260200160001515815260200160008152602001600015158152602001600060ff168152509056fe00000000000000000000000000000000000000000000000000000000000000000000000000000000000000000000000000000000000000000000000000000000000000000000000000000000000000000000000000000000000000000000000000000000000000000000000000000000000000000000000000000000000100014142434445464748494a4b4c4d4e4f505152535455565758595a6162636465666768696a6b6c6d6e6f707172737475767778797a303132333435363738392d5fb0ca0a0eeba26cda6c0fa56527056d49c91045cfd6598a050f7ca831173416426f3630264221c94b8189f19cbfa2073682ce16a459c5e59978320ffc9af811a8e9b1264c4dd3b32339791458efd65776229ff82ce26389bacfb606fdfd05ad0253045931b7bfd1383ca5d2e5f49796c828a59321f1632ced38fe66fd668d9c2851f47e50cf337a1fe37c189da93e2cfc5cfcb833c06f749ff405e33c94aea36d120b622e9c61beaddf677458eea985c6567c7a54b3f6d079fbfb6c563548c0349e5d08972d9e6be932e69001ab0390363a342a9a874c70b231eb0b0cd90d4599d914c7adf755ee5e5012099aa1dc5a7152b598b8f90c2b16842a26f650fe5e6f4578706563746564204a575420746f20636f6e7461696e206f6e6c7920737472696e67206b657973a165627a7a72305820278b62fd5a8016c55353896e9f06af09681b48a6285930545d3d2edaa19da9230029",
  "source": "pragma solidity ^0.5.0;\n\nimport \"./Identity.sol\";\n\ncontract TestIdentity is Identity {\n  bytes private constant rsaExponent = hex\"0000000000000000000000000000000000000000000000000000000000000000000000000000000000000000000000000000000000000000000000000000000000000000000000000000000000000000000000000000000000000000000000000000000000000000000000000000000000000000000000000000000000010001\";\n  bytes private constant rsaModulus = hex\"B0CA0A0EEBA26CDA6C0FA56527056D49C91045CFD6598A050F7CA831173416426F3630264221C94B8189F19CBFA2073682CE16A459C5E59978320FFC9AF811A8E9B1264C4DD3B32339791458EFD65776229FF82CE26389BACFB606FDFD05AD0253045931B7BFD1383CA5D2E5F49796C828A59321F1632CED38FE66FD668D9C2851F47E50CF337A1FE37C189DA93E2CFC5CFCB833C06F749FF405E33C94AEA36D120B622E9C61BEADDF677458EEA985C6567C7A54B3F6D079FBFB6C563548C0349E5D08972D9E6BE932E69001AB0390363A342A9A874C70B231EB0B0CD90D4599D914C7ADF755EE5E5012099AA1DC5A7152B598B8F90C2B16842A26F650FE5E6F\";\n\n  constructor(string memory sub, string memory aud)\n    Identity(sub, aud, JWKS(0))\n    public payable { }\n\n  function getRsaExponent(string memory) internal pure returns (bytes memory) {\n    return rsaExponent;\n  }\n\n  function getRsaModulus(string memory) internal view returns (bytes memory) {\n    return rsaModulus;\n  }\n}",
  "sourcePath": "/mnt/d/lv/solidity-jwt/contracts/TestIdentity.sol",
  "compiler": {
    "name": "solc",
    "version": "0.5.4+commit.9549d8ff.Emscripten.clang"
  },
  "schemaVersion": "3.4.16",
  "updatedAt": "2024-11-19T04:28:10.476Z",
  "devdoc": {
    "methods": {}
  },
  "userdoc": {
    "methods": {}
  }
}